{
  "_format": "hh-sol-artifact-1",
  "contractName": "MyToken",
  "sourceName": "contracts/Token.sol",
  "abi": [
    {
      "inputs": [],
      "stateMutability": "nonpayable",
      "type": "constructor"
    },
    {
      "anonymous": false,
      "inputs": [
        {
          "indexed": true,
          "internalType": "address",
          "name": "owner",
          "type": "address"
        },
        {
          "indexed": true,
          "internalType": "address",
          "name": "spender",
          "type": "address"
        },
        {
          "indexed": false,
          "internalType": "uint256",
          "name": "value",
          "type": "uint256"
        }
      ],
      "name": "Approval",
      "type": "event"
    },
    {
      "anonymous": false,
      "inputs": [
        {
          "indexed": true,
          "internalType": "address",
          "name": "delegator",
          "type": "address"
        },
        {
          "indexed": true,
          "internalType": "address",
          "name": "fromDelegate",
          "type": "address"
        },
        {
          "indexed": true,
          "internalType": "address",
          "name": "toDelegate",
          "type": "address"
        }
      ],
      "name": "DelegateChanged",
      "type": "event"
    },
    {
      "anonymous": false,
      "inputs": [
        {
          "indexed": true,
          "internalType": "address",
          "name": "delegate",
          "type": "address"
        },
        {
          "indexed": false,
          "internalType": "uint256",
          "name": "previousBalance",
          "type": "uint256"
        },
        {
          "indexed": false,
          "internalType": "uint256",
          "name": "newBalance",
          "type": "uint256"
        }
      ],
      "name": "DelegateVotesChanged",
      "type": "event"
    },
    {
      "anonymous": false,
      "inputs": [
        {
          "indexed": true,
          "internalType": "address",
          "name": "previousOwner",
          "type": "address"
        },
        {
          "indexed": true,
          "internalType": "address",
          "name": "newOwner",
          "type": "address"
        }
      ],
      "name": "OwnershipTransferred",
      "type": "event"
    },
    {
      "anonymous": false,
      "inputs": [
        {
          "indexed": true,
          "internalType": "address",
          "name": "from",
          "type": "address"
        },
        {
          "indexed": true,
          "internalType": "address",
          "name": "to",
          "type": "address"
        },
        {
          "indexed": false,
          "internalType": "uint256",
          "name": "value",
          "type": "uint256"
        }
      ],
      "name": "Transfer",
      "type": "event"
    },
    {
      "inputs": [],
      "name": "DOMAIN_SEPARATOR",
      "outputs": [
        {
          "internalType": "bytes32",
          "name": "",
          "type": "bytes32"
        }
      ],
      "stateMutability": "view",
      "type": "function"
    },
    {
      "inputs": [
        {
          "internalType": "address",
          "name": "owner",
          "type": "address"
        },
        {
          "internalType": "address",
          "name": "spender",
          "type": "address"
        }
      ],
      "name": "allowance",
      "outputs": [
        {
          "internalType": "uint256",
          "name": "",
          "type": "uint256"
        }
      ],
      "stateMutability": "view",
      "type": "function"
    },
    {
      "inputs": [
        {
          "internalType": "address",
          "name": "spender",
          "type": "address"
        },
        {
          "internalType": "uint256",
          "name": "amount",
          "type": "uint256"
        }
      ],
      "name": "approve",
      "outputs": [
        {
          "internalType": "bool",
          "name": "",
          "type": "bool"
        }
      ],
      "stateMutability": "nonpayable",
      "type": "function"
    },
    {
      "inputs": [
        {
          "internalType": "address",
          "name": "account",
          "type": "address"
        }
      ],
      "name": "balanceOf",
      "outputs": [
        {
          "internalType": "uint256",
          "name": "",
          "type": "uint256"
        }
      ],
      "stateMutability": "view",
      "type": "function"
    },
    {
      "inputs": [
        {
          "internalType": "address",
          "name": "account",
          "type": "address"
        },
        {
          "internalType": "uint32",
          "name": "pos",
          "type": "uint32"
        }
      ],
      "name": "checkpoints",
      "outputs": [
        {
          "components": [
            {
              "internalType": "uint32",
              "name": "fromBlock",
              "type": "uint32"
            },
            {
              "internalType": "uint224",
              "name": "votes",
              "type": "uint224"
            }
          ],
          "internalType": "struct ERC20Votes.Checkpoint",
          "name": "",
          "type": "tuple"
        }
      ],
      "stateMutability": "view",
      "type": "function"
    },
    {
      "inputs": [],
      "name": "decimals",
      "outputs": [
        {
          "internalType": "uint8",
          "name": "",
          "type": "uint8"
        }
      ],
      "stateMutability": "view",
      "type": "function"
    },
    {
      "inputs": [
        {
          "internalType": "address",
          "name": "spender",
          "type": "address"
        },
        {
          "internalType": "uint256",
          "name": "subtractedValue",
          "type": "uint256"
        }
      ],
      "name": "decreaseAllowance",
      "outputs": [
        {
          "internalType": "bool",
          "name": "",
          "type": "bool"
        }
      ],
      "stateMutability": "nonpayable",
      "type": "function"
    },
    {
      "inputs": [
        {
          "internalType": "address",
          "name": "delegatee",
          "type": "address"
        }
      ],
      "name": "delegate",
      "outputs": [],
      "stateMutability": "nonpayable",
      "type": "function"
    },
    {
      "inputs": [
        {
          "internalType": "address",
          "name": "delegatee",
          "type": "address"
        },
        {
          "internalType": "uint256",
          "name": "nonce",
          "type": "uint256"
        },
        {
          "internalType": "uint256",
          "name": "expiry",
          "type": "uint256"
        },
        {
          "internalType": "uint8",
          "name": "v",
          "type": "uint8"
        },
        {
          "internalType": "bytes32",
          "name": "r",
          "type": "bytes32"
        },
        {
          "internalType": "bytes32",
          "name": "s",
          "type": "bytes32"
        }
      ],
      "name": "delegateBySig",
      "outputs": [],
      "stateMutability": "nonpayable",
      "type": "function"
    },
    {
      "inputs": [
        {
          "internalType": "address",
          "name": "account",
          "type": "address"
        }
      ],
      "name": "delegates",
      "outputs": [
        {
          "internalType": "address",
          "name": "",
          "type": "address"
        }
      ],
      "stateMutability": "view",
      "type": "function"
    },
    {
      "inputs": [
        {
          "internalType": "uint256",
          "name": "blockNumber",
          "type": "uint256"
        }
      ],
      "name": "getPastTotalSupply",
      "outputs": [
        {
          "internalType": "uint256",
          "name": "",
          "type": "uint256"
        }
      ],
      "stateMutability": "view",
      "type": "function"
    },
    {
      "inputs": [
        {
          "internalType": "address",
          "name": "account",
          "type": "address"
        },
        {
          "internalType": "uint256",
          "name": "blockNumber",
          "type": "uint256"
        }
      ],
      "name": "getPastVotes",
      "outputs": [
        {
          "internalType": "uint256",
          "name": "",
          "type": "uint256"
        }
      ],
      "stateMutability": "view",
      "type": "function"
    },
    {
      "inputs": [
        {
          "internalType": "address",
          "name": "account",
          "type": "address"
        }
      ],
      "name": "getVotes",
      "outputs": [
        {
          "internalType": "uint256",
          "name": "",
          "type": "uint256"
        }
      ],
      "stateMutability": "view",
      "type": "function"
    },
    {
      "inputs": [
        {
          "internalType": "address",
          "name": "spender",
          "type": "address"
        },
        {
          "internalType": "uint256",
          "name": "addedValue",
          "type": "uint256"
        }
      ],
      "name": "increaseAllowance",
      "outputs": [
        {
          "internalType": "bool",
          "name": "",
          "type": "bool"
        }
      ],
      "stateMutability": "nonpayable",
      "type": "function"
    },
    {
      "inputs": [
        {
          "internalType": "address",
          "name": "to",
          "type": "address"
        },
        {
          "internalType": "uint256",
          "name": "amount",
          "type": "uint256"
        }
      ],
      "name": "mint",
      "outputs": [],
      "stateMutability": "nonpayable",
      "type": "function"
    },
    {
      "inputs": [],
      "name": "name",
      "outputs": [
        {
          "internalType": "string",
          "name": "",
          "type": "string"
        }
      ],
      "stateMutability": "view",
      "type": "function"
    },
    {
      "inputs": [
        {
          "internalType": "address",
          "name": "owner",
          "type": "address"
        }
      ],
      "name": "nonces",
      "outputs": [
        {
          "internalType": "uint256",
          "name": "",
          "type": "uint256"
        }
      ],
      "stateMutability": "view",
      "type": "function"
    },
    {
      "inputs": [
        {
          "internalType": "address",
          "name": "account",
          "type": "address"
        }
      ],
      "name": "numCheckpoints",
      "outputs": [
        {
          "internalType": "uint32",
          "name": "",
          "type": "uint32"
        }
      ],
      "stateMutability": "view",
      "type": "function"
    },
    {
      "inputs": [],
      "name": "owner",
      "outputs": [
        {
          "internalType": "address",
          "name": "",
          "type": "address"
        }
      ],
      "stateMutability": "view",
      "type": "function"
    },
    {
      "inputs": [
        {
          "internalType": "address",
          "name": "owner",
          "type": "address"
        },
        {
          "internalType": "address",
          "name": "spender",
          "type": "address"
        },
        {
          "internalType": "uint256",
          "name": "value",
          "type": "uint256"
        },
        {
          "internalType": "uint256",
          "name": "deadline",
          "type": "uint256"
        },
        {
          "internalType": "uint8",
          "name": "v",
          "type": "uint8"
        },
        {
          "internalType": "bytes32",
          "name": "r",
          "type": "bytes32"
        },
        {
          "internalType": "bytes32",
          "name": "s",
          "type": "bytes32"
        }
      ],
      "name": "permit",
      "outputs": [],
      "stateMutability": "nonpayable",
      "type": "function"
    },
    {
      "inputs": [],
      "name": "renounceOwnership",
      "outputs": [],
      "stateMutability": "nonpayable",
      "type": "function"
    },
    {
      "inputs": [],
      "name": "symbol",
      "outputs": [
        {
          "internalType": "string",
          "name": "",
          "type": "string"
        }
      ],
      "stateMutability": "view",
      "type": "function"
    },
    {
      "inputs": [],
      "name": "totalSupply",
      "outputs": [
        {
          "internalType": "uint256",
          "name": "",
          "type": "uint256"
        }
      ],
      "stateMutability": "view",
      "type": "function"
    },
    {
      "inputs": [
        {
          "internalType": "address",
          "name": "to",
          "type": "address"
        },
        {
          "internalType": "uint256",
          "name": "amount",
          "type": "uint256"
        }
      ],
      "name": "transfer",
      "outputs": [
        {
          "internalType": "bool",
          "name": "",
          "type": "bool"
        }
      ],
      "stateMutability": "nonpayable",
      "type": "function"
    },
    {
      "inputs": [
        {
          "internalType": "address",
          "name": "from",
          "type": "address"
        },
        {
          "internalType": "address",
          "name": "to",
          "type": "address"
        },
        {
          "internalType": "uint256",
          "name": "amount",
          "type": "uint256"
        }
      ],
      "name": "transferFrom",
      "outputs": [
        {
          "internalType": "bool",
          "name": "",
          "type": "bool"
        }
      ],
      "stateMutability": "nonpayable",
      "type": "function"
    },
    {
      "inputs": [
        {
          "internalType": "address",
          "name": "newOwner",
          "type": "address"
        }
      ],
      "name": "transferOwnership",
      "outputs": [],
      "stateMutability": "nonpayable",
      "type": "function"
    }
  ],
  "bytecode": "0x6101406040523480156200001257600080fd5b506040518060400160405280600781526020017f4d79546f6b656e00000000000000000000000000000000000000000000000000815250806040518060400160405280600181526020017f31000000000000000000000000000000000000000000000000000000000000008152506040518060400160405280600781526020017f4d79546f6b656e000000000000000000000000000000000000000000000000008152506040518060400160405280600381526020017f4d544b000000000000000000000000000000000000000000000000000000000081525081600390805190602001906200010492919062000306565b5080600490805190602001906200011d92919062000306565b5050506200014062000134620001fc60201b60201c565b6200020460201b60201c565b60008280519060200120905060008280519060200120905060007f8b73c3c69bb8fe3d512ecc4cf759cc79239f7b179b0ffacaa9a75d522b39400f90508260e081815250508161010081815250504660a08181525050620001a9818484620002ca60201b60201c565b608081815250503073ffffffffffffffffffffffffffffffffffffffff1660c08173ffffffffffffffffffffffffffffffffffffffff1660601b81525050806101208181525050505050505050620004f3565b600033905090565b6000600560009054906101000a900473ffffffffffffffffffffffffffffffffffffffff16905081600560006101000a81548173ffffffffffffffffffffffffffffffffffffffff021916908373ffffffffffffffffffffffffffffffffffffffff1602179055508173ffffffffffffffffffffffffffffffffffffffff168173ffffffffffffffffffffffffffffffffffffffff167f8be0079c531659141344cd1fd0a4f28419497f9722a3daafe3b4186f6b6457e060405160405180910390a35050565b60008383834630604051602001620002e7959493929190620003e9565b6040516020818303038152906040528051906020012090509392505050565b82805462000314906200048e565b90600052602060002090601f01602090048101928262000338576000855562000384565b82601f106200035357805160ff191683800117855562000384565b8280016001018555821562000384579182015b828111156200038357825182559160200191906001019062000366565b5b50905062000393919062000397565b5090565b5b80821115620003b257600081600090555060010162000398565b5090565b620003c18162000446565b82525050565b620003d2816200045a565b82525050565b620003e38162000484565b82525050565b600060a082019050620004006000830188620003c7565b6200040f6020830187620003c7565b6200041e6040830186620003c7565b6200042d6060830185620003d8565b6200043c6080830184620003b6565b9695505050505050565b6000620004538262000464565b9050919050565b6000819050919050565b600073ffffffffffffffffffffffffffffffffffffffff82169050919050565b6000819050919050565b60006002820490506001821680620004a757607f821691505b60208210811415620004be57620004bd620004c4565b5b50919050565b7f4e487b7100000000000000000000000000000000000000000000000000000000600052602260045260246000fd5b60805160a05160c05160601c60e0516101005161012051613de462000546600039600061173501526000611777015260006117560152600061168b015260006116e10152600061170a0152613de46000f3fe608060405234801561001057600080fd5b506004361061018e5760003560e01c8063715018a6116100de578063a457c2d711610097578063d505accf11610071578063d505accf146104e5578063dd62ed3e14610501578063f1127ed814610531578063f2fde38b146105615761018e565b8063a457c2d714610469578063a9059cbb14610499578063c3cda520146104c95761018e565b8063715018a6146103935780637ecebe001461039d5780638da5cb5b146103cd5780638e539e8c146103eb57806395d89b411461041b5780639ab24eb0146104395761018e565b8063395093511161014b578063587cde1e11610125578063587cde1e146102e75780635c19a95c146103175780636fcfff451461033357806370a08231146103635761018e565b8063395093511461026b5780633a46b1a81461029b57806340c10f19146102cb5761018e565b806306fdde0314610193578063095ea7b3146101b157806318160ddd146101e157806323b872dd146101ff578063313ce5671461022f5780633644e5151461024d575b600080fd5b61019b61057d565b6040516101a891906131c7565b60405180910390f35b6101cb60048036038101906101c69190612abb565b61060f565b6040516101d89190613053565b60405180910390f35b6101e9610632565b6040516101f691906134c4565b60405180910390f35b610219600480360381019061021491906129ce565b61063c565b6040516102269190613053565b60405180910390f35b61023761066b565b6040516102449190613523565b60405180910390f35b610255610674565b604051610262919061306e565b60405180910390f35b61028560048036038101906102809190612abb565b610683565b6040516102929190613053565b60405180910390f35b6102b560048036038101906102b09190612abb565b6106ba565b6040516102c291906134c4565b60405180910390f35b6102e560048036038101906102e09190612abb565b61074e565b005b61030160048036038101906102fc9190612969565b6107d8565b60405161030e9190613038565b60405180910390f35b610331600480360381019061032c9190612969565b610841565b005b61034d60048036038101906103489190612969565b610855565b60405161035a9190613508565b60405180910390f35b61037d60048036038101906103789190612969565b6108a9565b60405161038a91906134c4565b60405180910390f35b61039b6108f1565b005b6103b760048036038101906103b29190612969565b610979565b6040516103c491906134c4565b60405180910390f35b6103d56109c9565b6040516103e29190613038565b60405180910390f35b61040560048036038101906104009190612bbc565b6109f3565b60405161041291906134c4565b60405180910390f35b610423610a49565b60405161043091906131c7565b60405180910390f35b610453600480360381019061044e9190612969565b610adb565b60405161046091906134c4565b60405180910390f35b610483600480360381019061047e9190612abb565b610c12565b6040516104909190613053565b60405180910390f35b6104b360048036038101906104ae9190612abb565b610c89565b6040516104c09190613053565b60405180910390f35b6104e360048036038101906104de9190612af7565b610cac565b005b6104ff60048036038101906104fa9190612a1d565b610db0565b005b61051b60048036038101906105169190612992565b610ef2565b60405161052891906134c4565b60405180910390f35b61054b60048036038101906105469190612b80565b610f79565b60405161055891906134a9565b60405180910390f35b61057b60048036038101906105769190612969565b6110af565b005b60606003805461058c906136ea565b80601f01602080910402602001604051908101604052809291908181526020018280546105b8906136ea565b80156106055780601f106105da57610100808354040283529160200191610605565b820191906000526020600020905b8154815290600101906020018083116105e857829003601f168201915b5050505050905090565b60008061061a6111a7565b90506106278185856111af565b600191505092915050565b6000600254905090565b6000806106476111a7565b905061065485828561137a565b61065f858585611406565b60019150509392505050565b60006012905090565b600061067e611687565b905090565b60008061068e6111a7565b90506106af8185856106a08589610ef2565b6106aa9190613565565b6111af565b600191505092915050565b60004382106106fe576040517f08c379a00000000000000000000000000000000000000000000000000000000081526004016106f590613229565b60405180910390fd5b610746600960008573ffffffffffffffffffffffffffffffffffffffff1673ffffffffffffffffffffffffffffffffffffffff168152602001908152602001600020836117a1565b905092915050565b6107566111a7565b73ffffffffffffffffffffffffffffffffffffffff166107746109c9565b73ffffffffffffffffffffffffffffffffffffffff16146107ca576040517f08c379a00000000000000000000000000000000000000000000000000000000081526004016107c1906133c9565b60405180910390fd5b6107d482826118f9565b5050565b6000600860008373ffffffffffffffffffffffffffffffffffffffff1673ffffffffffffffffffffffffffffffffffffffff16815260200190815260200160002060009054906101000a900473ffffffffffffffffffffffffffffffffffffffff169050919050565b61085261084c6111a7565b82611907565b50565b60006108a2600960008473ffffffffffffffffffffffffffffffffffffffff1673ffffffffffffffffffffffffffffffffffffffff16815260200190815260200160002080549050611a21565b9050919050565b60008060008373ffffffffffffffffffffffffffffffffffffffff1673ffffffffffffffffffffffffffffffffffffffff168152602001908152602001600020549050919050565b6108f96111a7565b73ffffffffffffffffffffffffffffffffffffffff166109176109c9565b73ffffffffffffffffffffffffffffffffffffffff161461096d576040517f08c379a0000000000000000000000000000000000000000000000000000000008152600401610964906133c9565b60405180910390fd5b6109776000611a74565b565b60006109c2600660008473ffffffffffffffffffffffffffffffffffffffff1673ffffffffffffffffffffffffffffffffffffffff168152602001908152602001600020611b3a565b9050919050565b6000600560009054906101000a900473ffffffffffffffffffffffffffffffffffffffff16905090565b6000438210610a37576040517f08c379a0000000000000000000000000000000000000000000000000000000008152600401610a2e90613229565b60405180910390fd5b610a42600a836117a1565b9050919050565b606060048054610a58906136ea565b80601f0160208091040260200160405190810160405280929190818152602001828054610a84906136ea565b8015610ad15780601f10610aa657610100808354040283529160200191610ad1565b820191906000526020600020905b815481529060010190602001808311610ab457829003601f168201915b5050505050905090565b600080600960008473ffffffffffffffffffffffffffffffffffffffff1673ffffffffffffffffffffffffffffffffffffffff16815260200190815260200160002080549050905060008114610be957600960008473ffffffffffffffffffffffffffffffffffffffff1673ffffffffffffffffffffffffffffffffffffffff168152602001908152602001600020600182610b7791906135ec565b81548110610bae577f4e487b7100000000000000000000000000000000000000000000000000000000600052603260045260246000fd5b9060005260206000200160000160049054906101000a90047bffffffffffffffffffffffffffffffffffffffffffffffffffffffff16610bec565b60005b7bffffffffffffffffffffffffffffffffffffffffffffffffffffffff16915050919050565b600080610c1d6111a7565b90506000610c2b8286610ef2565b905083811015610c70576040517f08c379a0000000000000000000000000000000000000000000000000000000008152600401610c6790613469565b60405180910390fd5b610c7d82868684036111af565b60019250505092915050565b600080610c946111a7565b9050610ca1818585611406565b600191505092915050565b83421115610cef576040517f08c379a0000000000000000000000000000000000000000000000000000000008152600401610ce690613249565b60405180910390fd5b6000610d51610d497fe48329057bfd03d55e49b547132e39cffd9c1820ad7b9d4c5307691425d15adf898989604051602001610d2e94939291906130ea565b60405160208183030381529060405280519060200120611b48565b858585611b62565b9050610d5c81611b8d565b8614610d9d576040517f08c379a0000000000000000000000000000000000000000000000000000000008152600401610d9490613289565b60405180910390fd5b610da78188611907565b50505050505050565b83421115610df3576040517f08c379a0000000000000000000000000000000000000000000000000000000008152600401610dea90613309565b60405180910390fd5b60007f6e71edae12b1b97f4d1f60370fef10105fa2faae0126114a169c64845d6126c9888888610e228c611b8d565b89604051602001610e3896959493929190613089565b6040516020818303038152906040528051906020012090506000610e5b82611b48565b90506000610e6b82878787611b62565b90508973ffffffffffffffffffffffffffffffffffffffff168173ffffffffffffffffffffffffffffffffffffffff1614610edb576040517f08c379a0000000000000000000000000000000000000000000000000000000008152600401610ed290613389565b60405180910390fd5b610ee68a8a8a6111af565b50505050505050505050565b6000600160008473ffffffffffffffffffffffffffffffffffffffff1673ffffffffffffffffffffffffffffffffffffffff16815260200190815260200160002060008373ffffffffffffffffffffffffffffffffffffffff1673ffffffffffffffffffffffffffffffffffffffff16815260200190815260200160002054905092915050565b610f816128c2565b600960008473ffffffffffffffffffffffffffffffffffffffff1673ffffffffffffffffffffffffffffffffffffffff1681526020019081526020016000208263ffffffff1681548110610ffe577f4e487b7100000000000000000000000000000000000000000000000000000000600052603260045260246000fd5b906000526020600020016040518060400160405290816000820160009054906101000a900463ffffffff1663ffffffff1663ffffffff1681526020016000820160049054906101000a90047bffffffffffffffffffffffffffffffffffffffffffffffffffffffff167bffffffffffffffffffffffffffffffffffffffffffffffffffffffff167bffffffffffffffffffffffffffffffffffffffffffffffffffffffff1681525050905092915050565b6110b76111a7565b73ffffffffffffffffffffffffffffffffffffffff166110d56109c9565b73ffffffffffffffffffffffffffffffffffffffff161461112b576040517f08c379a0000000000000000000000000000000000000000000000000000000008152600401611122906133c9565b60405180910390fd5b600073ffffffffffffffffffffffffffffffffffffffff168173ffffffffffffffffffffffffffffffffffffffff16141561119b576040517f08c379a0000000000000000000000000000000000000000000000000000000008152600401611192906132a9565b60405180910390fd5b6111a481611a74565b50565b600033905090565b600073ffffffffffffffffffffffffffffffffffffffff168373ffffffffffffffffffffffffffffffffffffffff16141561121f576040517f08c379a000000000000000000000000000000000000000000000000000000000815260040161121690613449565b60405180910390fd5b600073ffffffffffffffffffffffffffffffffffffffff168273ffffffffffffffffffffffffffffffffffffffff16141561128f576040517f08c379a0000000000000000000000000000000000000000000000000000000008152600401611286906132c9565b60405180910390fd5b80600160008573ffffffffffffffffffffffffffffffffffffffff1673ffffffffffffffffffffffffffffffffffffffff16815260200190815260200160002060008473ffffffffffffffffffffffffffffffffffffffff1673ffffffffffffffffffffffffffffffffffffffff168152602001908152602001600020819055508173ffffffffffffffffffffffffffffffffffffffff168373ffffffffffffffffffffffffffffffffffffffff167f8c5be1e5ebec7d5bd14f71427d1e84f3dd0314c0f7b2291e5b200ac8c7c3b9258360405161136d91906134c4565b60405180910390a3505050565b60006113868484610ef2565b90507fffffffffffffffffffffffffffffffffffffffffffffffffffffffffffffffff811461140057818110156113f2576040517f08c379a00000000000000000000000000000000000000000000000000000000081526004016113e9906132e9565b60405180910390fd5b6113ff84848484036111af565b5b50505050565b600073ffffffffffffffffffffffffffffffffffffffff168373ffffffffffffffffffffffffffffffffffffffff161415611476576040517f08c379a000000000000000000000000000000000000000000000000000000000815260040161146d90613409565b60405180910390fd5b600073ffffffffffffffffffffffffffffffffffffffff168273ffffffffffffffffffffffffffffffffffffffff1614156114e6576040517f08c379a00000000000000000000000000000000000000000000000000000000081526004016114dd90613209565b60405180910390fd5b6114f1838383611beb565b60008060008573ffffffffffffffffffffffffffffffffffffffff1673ffffffffffffffffffffffffffffffffffffffff16815260200190815260200160002054905081811015611577576040517f08c379a000000000000000000000000000000000000000000000000000000000815260040161156e90613329565b60405180910390fd5b8181036000808673ffffffffffffffffffffffffffffffffffffffff1673ffffffffffffffffffffffffffffffffffffffff16815260200190815260200160002081905550816000808573ffffffffffffffffffffffffffffffffffffffff1673ffffffffffffffffffffffffffffffffffffffff168152602001908152602001600020600082825461160a9190613565565b925050819055508273ffffffffffffffffffffffffffffffffffffffff168473ffffffffffffffffffffffffffffffffffffffff167fddf252ad1be2c89b69c2b068fc378daa952ba7f163c4a11628f55a4df523b3ef8460405161166e91906134c4565b60405180910390a3611681848484611bf0565b50505050565b60007f000000000000000000000000000000000000000000000000000000000000000073ffffffffffffffffffffffffffffffffffffffff163073ffffffffffffffffffffffffffffffffffffffff1614801561170357507f000000000000000000000000000000000000000000000000000000000000000046145b15611730577f0000000000000000000000000000000000000000000000000000000000000000905061179e565b61179b7f00000000000000000000000000000000000000000000000000000000000000007f00000000000000000000000000000000000000000000000000000000000000007f0000000000000000000000000000000000000000000000000000000000000000611c00565b90505b90565b6000808380549050905060005b818110156118465760006117c28284611c3a565b9050848682815481106117fe577f4e487b7100000000000000000000000000000000000000000000000000000000600052603260045260246000fd5b9060005260206000200160000160009054906101000a900463ffffffff1663ffffffff16111561183057809250611840565b60018161183d9190613565565b91505b506117ae565b600082146118ce578460018361185c91906135ec565b81548110611893577f4e487b7100000000000000000000000000000000000000000000000000000000600052603260045260246000fd5b9060005260206000200160000160049054906101000a90047bffffffffffffffffffffffffffffffffffffffffffffffffffffffff166118d1565b60005b7bffffffffffffffffffffffffffffffffffffffffffffffffffffffff169250505092915050565b6119038282611c60565b5050565b6000611912836107d8565b9050600061191f846108a9565b905082600860008673ffffffffffffffffffffffffffffffffffffffff1673ffffffffffffffffffffffffffffffffffffffff16815260200190815260200160002060006101000a81548173ffffffffffffffffffffffffffffffffffffffff021916908373ffffffffffffffffffffffffffffffffffffffff1602179055508273ffffffffffffffffffffffffffffffffffffffff168273ffffffffffffffffffffffffffffffffffffffff168573ffffffffffffffffffffffffffffffffffffffff167f3134e8a2e6d97e929a7e54011ea5485d7d196dd5f0ba4d4ef95803e8e3fc257f60405160405180910390a4611a1b828483611ced565b50505050565b600063ffffffff8016821115611a6c576040517f08c379a0000000000000000000000000000000000000000000000000000000008152600401611a6390613429565b60405180910390fd5b819050919050565b6000600560009054906101000a900473ffffffffffffffffffffffffffffffffffffffff16905081600560006101000a81548173ffffffffffffffffffffffffffffffffffffffff021916908373ffffffffffffffffffffffffffffffffffffffff1602179055508173ffffffffffffffffffffffffffffffffffffffff168173ffffffffffffffffffffffffffffffffffffffff167f8be0079c531659141344cd1fd0a4f28419497f9722a3daafe3b4186f6b6457e060405160405180910390a35050565b600081600001549050919050565b6000611b5b611b55611687565b83611ee6565b9050919050565b6000806000611b7387878787611f19565b91509150611b8081612026565b8192505050949350505050565b600080600660008473ffffffffffffffffffffffffffffffffffffffff1673ffffffffffffffffffffffffffffffffffffffff1681526020019081526020016000209050611bda81611b3a565b9150611be581612377565b50919050565b505050565b611bfb83838361238d565b505050565b60008383834630604051602001611c1b95949392919061312f565b6040516020818303038152906040528051906020012090509392505050565b60006002828418611c4b91906135bb565b828416611c589190613565565b905092915050565b611c6a82826123b8565b611c72612518565b7bffffffffffffffffffffffffffffffffffffffffffffffffffffffff16611c98610632565b1115611cd9576040517f08c379a0000000000000000000000000000000000000000000000000000000008152600401611cd0906133a9565b60405180910390fd5b611ce7600a61253c83612552565b50505050565b8173ffffffffffffffffffffffffffffffffffffffff168373ffffffffffffffffffffffffffffffffffffffff1614158015611d295750600081115b15611ee157600073ffffffffffffffffffffffffffffffffffffffff168373ffffffffffffffffffffffffffffffffffffffff1614611e0757600080611db0600960008773ffffffffffffffffffffffffffffffffffffffff1673ffffffffffffffffffffffffffffffffffffffff16815260200190815260200160002061283c85612552565b915091508473ffffffffffffffffffffffffffffffffffffffff167fdec2bacdd2f05b59de34da9b523dff8be42e5e38e818c82fdb0bae774387a7248383604051611dfc9291906134df565b60405180910390a250505b600073ffffffffffffffffffffffffffffffffffffffff168273ffffffffffffffffffffffffffffffffffffffff1614611ee057600080611e89600960008673ffffffffffffffffffffffffffffffffffffffff1673ffffffffffffffffffffffffffffffffffffffff16815260200190815260200160002061253c85612552565b915091508373ffffffffffffffffffffffffffffffffffffffff167fdec2bacdd2f05b59de34da9b523dff8be42e5e38e818c82fdb0bae774387a7248383604051611ed59291906134df565b60405180910390a250505b5b505050565b60008282604051602001611efb929190613001565b60405160208183030381529060405280519060200120905092915050565b6000807f7fffffffffffffffffffffffffffffff5d576e7357a4501ddfe92f46681b20a08360001c1115611f5457600060039150915061201d565b601b8560ff1614158015611f6c5750601c8560ff1614155b15611f7e57600060049150915061201d565b600060018787878760405160008152602001604052604051611fa39493929190613182565b6020604051602081039080840390855afa158015611fc5573d6000803e3d6000fd5b505050602060405103519050600073ffffffffffffffffffffffffffffffffffffffff168173ffffffffffffffffffffffffffffffffffffffff1614156120145760006001925092505061201d565b80600092509250505b94509492505050565b60006004811115612060577f4e487b7100000000000000000000000000000000000000000000000000000000600052602160045260246000fd5b816004811115612099577f4e487b7100000000000000000000000000000000000000000000000000000000600052602160045260246000fd5b14156120a457612374565b600160048111156120de577f4e487b7100000000000000000000000000000000000000000000000000000000600052602160045260246000fd5b816004811115612117577f4e487b7100000000000000000000000000000000000000000000000000000000600052602160045260246000fd5b1415612158576040517f08c379a000000000000000000000000000000000000000000000000000000000815260040161214f906131e9565b60405180910390fd5b60026004811115612192577f4e487b7100000000000000000000000000000000000000000000000000000000600052602160045260246000fd5b8160048111156121cb577f4e487b7100000000000000000000000000000000000000000000000000000000600052602160045260246000fd5b141561220c576040517f08c379a000000000000000000000000000000000000000000000000000000000815260040161220390613269565b60405180910390fd5b60036004811115612246577f4e487b7100000000000000000000000000000000000000000000000000000000600052602160045260246000fd5b81600481111561227f577f4e487b7100000000000000000000000000000000000000000000000000000000600052602160045260246000fd5b14156122c0576040517f08c379a00000000000000000000000000000000000000000000000000000000081526004016122b790613349565b60405180910390fd5b6004808111156122f9577f4e487b7100000000000000000000000000000000000000000000000000000000600052602160045260246000fd5b816004811115612332577f4e487b7100000000000000000000000000000000000000000000000000000000600052602160045260246000fd5b1415612373576040517f08c379a000000000000000000000000000000000000000000000000000000000815260040161236a90613369565b60405180910390fd5b5b50565b6001816000016000828254019250508190555050565b612398838383612852565b6123b36123a4846107d8565b6123ad846107d8565b83611ced565b505050565b600073ffffffffffffffffffffffffffffffffffffffff168273ffffffffffffffffffffffffffffffffffffffff161415612428576040517f08c379a000000000000000000000000000000000000000000000000000000000815260040161241f90613489565b60405180910390fd5b61243460008383611beb565b80600260008282546124469190613565565b92505081905550806000808473ffffffffffffffffffffffffffffffffffffffff1673ffffffffffffffffffffffffffffffffffffffff168152602001908152602001600020600082825461249b9190613565565b925050819055508173ffffffffffffffffffffffffffffffffffffffff16600073ffffffffffffffffffffffffffffffffffffffff167fddf252ad1be2c89b69c2b068fc378daa952ba7f163c4a11628f55a4df523b3ef8360405161250091906134c4565b60405180910390a361251460008383611bf0565b5050565b60007bffffffffffffffffffffffffffffffffffffffffffffffffffffffff905090565b6000818361254a9190613565565b905092915050565b600080600085805490509050600081146125e6578560018261257491906135ec565b815481106125ab577f4e487b7100000000000000000000000000000000000000000000000000000000600052603260045260246000fd5b9060005260206000200160000160049054906101000a90047bffffffffffffffffffffffffffffffffffffffffffffffffffffffff166125e9565b60005b7bffffffffffffffffffffffffffffffffffffffffffffffffffffffff16925061261783858763ffffffff16565b91506000811180156126905750438660018361263391906135ec565b8154811061266a577f4e487b7100000000000000000000000000000000000000000000000000000000600052603260045260246000fd5b9060005260206000200160000160009054906101000a900463ffffffff1663ffffffff16145b156127435761269e82612857565b866001836126ac91906135ec565b815481106126e3577f4e487b7100000000000000000000000000000000000000000000000000000000600052603260045260246000fd5b9060005260206000200160000160046101000a8154817bffffffffffffffffffffffffffffffffffffffffffffffffffffffff02191690837bffffffffffffffffffffffffffffffffffffffffffffffffffffffff160217905550612833565b85604051806040016040528061275843611a21565b63ffffffff16815260200161276c85612857565b7bffffffffffffffffffffffffffffffffffffffffffffffffffffffff168152509080600181540180825580915050600190039060005260206000200160009091909190915060008201518160000160006101000a81548163ffffffff021916908363ffffffff16021790555060208201518160000160046101000a8154817bffffffffffffffffffffffffffffffffffffffffffffffffffffffff02191690837bffffffffffffffffffffffffffffffffffffffffffffffffffffffff16021790555050505b50935093915050565b6000818361284a91906135ec565b905092915050565b505050565b60007bffffffffffffffffffffffffffffffffffffffffffffffffffffffff80168211156128ba576040517f08c379a00000000000000000000000000000000000000000000000000000000081526004016128b1906133e9565b60405180910390fd5b819050919050565b6040518060400160405280600063ffffffff16815260200160007bffffffffffffffffffffffffffffffffffffffffffffffffffffffff1681525090565b60008135905061290f81613d3b565b92915050565b60008135905061292481613d52565b92915050565b60008135905061293981613d69565b92915050565b60008135905061294e81613d80565b92915050565b60008135905061296381613d97565b92915050565b60006020828403121561297b57600080fd5b600061298984828501612900565b91505092915050565b600080604083850312156129a557600080fd5b60006129b385828601612900565b92505060206129c485828601612900565b9150509250929050565b6000806000606084860312156129e357600080fd5b60006129f186828701612900565b9350506020612a0286828701612900565b9250506040612a138682870161292a565b9150509250925092565b600080600080600080600060e0888a031215612a3857600080fd5b6000612a468a828b01612900565b9750506020612a578a828b01612900565b9650506040612a688a828b0161292a565b9550506060612a798a828b0161292a565b9450506080612a8a8a828b01612954565b93505060a0612a9b8a828b01612915565b92505060c0612aac8a828b01612915565b91505092959891949750929550565b60008060408385031215612ace57600080fd5b6000612adc85828601612900565b9250506020612aed8582860161292a565b9150509250929050565b60008060008060008060c08789031215612b1057600080fd5b6000612b1e89828a01612900565b9650506020612b2f89828a0161292a565b9550506040612b4089828a0161292a565b9450506060612b5189828a01612954565b9350506080612b6289828a01612915565b92505060a0612b7389828a01612915565b9150509295509295509295565b60008060408385031215612b9357600080fd5b6000612ba185828601612900565b9250506020612bb28582860161293f565b9150509250929050565b600060208284031215612bce57600080fd5b6000612bdc8482850161292a565b91505092915050565b612bee81613620565b82525050565b612bfd81613632565b82525050565b612c0c8161363e565b82525050565b612c23612c1e8261363e565b61371c565b82525050565b6000612c348261353e565b612c3e8185613549565b9350612c4e8185602086016136b7565b612c57816137b3565b840191505092915050565b6000612c6f601883613549565b9150612c7a826137c4565b602082019050919050565b6000612c92602383613549565b9150612c9d826137ed565b604082019050919050565b6000612cb5601f83613549565b9150612cc08261383c565b602082019050919050565b6000612cd8601d83613549565b9150612ce382613865565b602082019050919050565b6000612cfb601f83613549565b9150612d068261388e565b602082019050919050565b6000612d1e601983613549565b9150612d29826138b7565b602082019050919050565b6000612d41602683613549565b9150612d4c826138e0565b604082019050919050565b6000612d64602283613549565b9150612d6f8261392f565b604082019050919050565b6000612d8760028361355a565b9150612d928261397e565b600282019050919050565b6000612daa601d83613549565b9150612db5826139a7565b602082019050919050565b6000612dcd601d83613549565b9150612dd8826139d0565b602082019050919050565b6000612df0602683613549565b9150612dfb826139f9565b604082019050919050565b6000612e13602283613549565b9150612e1e82613a48565b604082019050919050565b6000612e36602283613549565b9150612e4182613a97565b604082019050919050565b6000612e59601e83613549565b9150612e6482613ae6565b602082019050919050565b6000612e7c603083613549565b9150612e8782613b0f565b604082019050919050565b6000612e9f602083613549565b9150612eaa82613b5e565b602082019050919050565b6000612ec2602783613549565b9150612ecd82613b87565b604082019050919050565b6000612ee5602583613549565b9150612ef082613bd6565b604082019050919050565b6000612f08602683613549565b9150612f1382613c25565b604082019050919050565b6000612f2b602483613549565b9150612f3682613c74565b604082019050919050565b6000612f4e602583613549565b9150612f5982613cc3565b604082019050919050565b6000612f71601f83613549565b9150612f7c82613d12565b602082019050919050565b604082016000820151612f9d6000850182612fd4565b506020820151612fb06020850182612fb6565b50505050565b612fbf81613668565b82525050565b612fce81613690565b82525050565b612fdd8161369a565b82525050565b612fec8161369a565b82525050565b612ffb816136aa565b82525050565b600061300c82612d7a565b91506130188285612c12565b6020820191506130288284612c12565b6020820191508190509392505050565b600060208201905061304d6000830184612be5565b92915050565b60006020820190506130686000830184612bf4565b92915050565b60006020820190506130836000830184612c03565b92915050565b600060c08201905061309e6000830189612c03565b6130ab6020830188612be5565b6130b86040830187612be5565b6130c56060830186612fc5565b6130d26080830185612fc5565b6130df60a0830184612fc5565b979650505050505050565b60006080820190506130ff6000830187612c03565b61310c6020830186612be5565b6131196040830185612fc5565b6131266060830184612fc5565b95945050505050565b600060a0820190506131446000830188612c03565b6131516020830187612c03565b61315e6040830186612c03565b61316b6060830185612fc5565b6131786080830184612be5565b9695505050505050565b60006080820190506131976000830187612c03565b6131a46020830186612ff2565b6131b16040830185612c03565b6131be6060830184612c03565b95945050505050565b600060208201905081810360008301526131e18184612c29565b905092915050565b6000602082019050818103600083015261320281612c62565b9050919050565b6000602082019050818103600083015261322281612c85565b9050919050565b6000602082019050818103600083015261324281612ca8565b9050919050565b6000602082019050818103600083015261326281612ccb565b9050919050565b6000602082019050818103600083015261328281612cee565b9050919050565b600060208201905081810360008301526132a281612d11565b9050919050565b600060208201905081810360008301526132c281612d34565b9050919050565b600060208201905081810360008301526132e281612d57565b9050919050565b6000602082019050818103600083015261330281612d9d565b9050919050565b6000602082019050818103600083015261332281612dc0565b9050919050565b6000602082019050818103600083015261334281612de3565b9050919050565b6000602082019050818103600083015261336281612e06565b9050919050565b6000602082019050818103600083015261338281612e29565b9050919050565b600060208201905081810360008301526133a281612e4c565b9050919050565b600060208201905081810360008301526133c281612e6f565b9050919050565b600060208201905081810360008301526133e281612e92565b9050919050565b6000602082019050818103600083015261340281612eb5565b9050919050565b6000602082019050818103600083015261342281612ed8565b9050919050565b6000602082019050818103600083015261344281612efb565b9050919050565b6000602082019050818103600083015261346281612f1e565b9050919050565b6000602082019050818103600083015261348281612f41565b9050919050565b600060208201905081810360008301526134a281612f64565b9050919050565b60006040820190506134be6000830184612f87565b92915050565b60006020820190506134d96000830184612fc5565b92915050565b60006040820190506134f46000830185612fc5565b6135016020830184612fc5565b9392505050565b600060208201905061351d6000830184612fe3565b92915050565b60006020820190506135386000830184612ff2565b92915050565b600081519050919050565b600082825260208201905092915050565b600081905092915050565b600061357082613690565b915061357b83613690565b9250827fffffffffffffffffffffffffffffffffffffffffffffffffffffffffffffffff038211156135b0576135af613726565b5b828201905092915050565b60006135c682613690565b91506135d183613690565b9250826135e1576135e0613755565b5b828204905092915050565b60006135f782613690565b915061360283613690565b92508282101561361557613614613726565b5b828203905092915050565b600061362b82613648565b9050919050565b60008115159050919050565b6000819050919050565b600073ffffffffffffffffffffffffffffffffffffffff82169050919050565b60007bffffffffffffffffffffffffffffffffffffffffffffffffffffffff82169050919050565b6000819050919050565b600063ffffffff82169050919050565b600060ff82169050919050565b60005b838110156136d55780820151818401526020810190506136ba565b838111156136e4576000848401525b50505050565b6000600282049050600182168061370257607f821691505b6020821081141561371657613715613784565b5b50919050565b6000819050919050565b7f4e487b7100000000000000000000000000000000000000000000000000000000600052601160045260246000fd5b7f4e487b7100000000000000000000000000000000000000000000000000000000600052601260045260246000fd5b7f4e487b7100000000000000000000000000000000000000000000000000000000600052602260045260246000fd5b6000601f19601f8301169050919050565b7f45434453413a20696e76616c6964207369676e61747572650000000000000000600082015250565b7f45524332303a207472616e7366657220746f20746865207a65726f206164647260008201527f6573730000000000000000000000000000000000000000000000000000000000602082015250565b7f4552433230566f7465733a20626c6f636b206e6f7420796574206d696e656400600082015250565b7f4552433230566f7465733a207369676e61747572652065787069726564000000600082015250565b7f45434453413a20696e76616c6964207369676e6174757265206c656e67746800600082015250565b7f4552433230566f7465733a20696e76616c6964206e6f6e636500000000000000600082015250565b7f4f776e61626c653a206e6577206f776e657220697320746865207a65726f206160008201527f6464726573730000000000000000000000000000000000000000000000000000602082015250565b7f45524332303a20617070726f766520746f20746865207a65726f20616464726560008201527f7373000000000000000000000000000000000000000000000000000000000000602082015250565b7f1901000000000000000000000000000000000000000000000000000000000000600082015250565b7f45524332303a20696e73756666696369656e7420616c6c6f77616e6365000000600082015250565b7f45524332305065726d69743a206578706972656420646561646c696e65000000600082015250565b7f45524332303a207472616e7366657220616d6f756e742065786365656473206260008201527f616c616e63650000000000000000000000000000000000000000000000000000602082015250565b7f45434453413a20696e76616c6964207369676e6174757265202773272076616c60008201527f7565000000000000000000000000000000000000000000000000000000000000602082015250565b7f45434453413a20696e76616c6964207369676e6174757265202776272076616c60008201527f7565000000000000000000000000000000000000000000000000000000000000602082015250565b7f45524332305065726d69743a20696e76616c6964207369676e61747572650000600082015250565b7f4552433230566f7465733a20746f74616c20737570706c79207269736b73206f60008201527f766572666c6f77696e6720766f74657300000000000000000000000000000000602082015250565b7f4f776e61626c653a2063616c6c6572206973206e6f7420746865206f776e6572600082015250565b7f53616665436173743a2076616c756520646f65736e27742066697420696e203260008201527f3234206269747300000000000000000000000000000000000000000000000000602082015250565b7f45524332303a207472616e736665722066726f6d20746865207a65726f20616460008201527f6472657373000000000000000000000000000000000000000000000000000000602082015250565b7f53616665436173743a2076616c756520646f65736e27742066697420696e203360008201527f3220626974730000000000000000000000000000000000000000000000000000602082015250565b7f45524332303a20617070726f76652066726f6d20746865207a65726f2061646460008201527f7265737300000000000000000000000000000000000000000000000000000000602082015250565b7f45524332303a2064656372656173656420616c6c6f77616e63652062656c6f7760008201527f207a65726f000000000000000000000000000000000000000000000000000000602082015250565b7f45524332303a206d696e7420746f20746865207a65726f206164647265737300600082015250565b613d4481613620565b8114613d4f57600080fd5b50565b613d5b8161363e565b8114613d6657600080fd5b50565b613d7281613690565b8114613d7d57600080fd5b50565b613d898161369a565b8114613d9457600080fd5b50565b613da0816136aa565b8114613dab57600080fd5b5056fea2646970667358221220b7911c797d49df1bb191abec40d4664b7dba4a929690a6f5b09c415783ce706964736f6c63430008040033",
  "linkReferences": {},
  "deployedLinkReferences": {}
}