{
  "_format": "hh-sol-artifact-1",
  "contractName": "MyGovernor",
  "sourceName": "contracts/Governor.sol",
  "abi": [
    {
      "inputs": [
        {
          "internalType": "contract IVotes",
          "name": "_token",
          "type": "address"
        }
      ],
      "stateMutability": "nonpayable",
      "type": "constructor"
    },
    {
      "inputs": [],
      "name": "Empty",
      "type": "error"
    },
    {
      "anonymous": false,
      "inputs": [
        {
          "indexed": false,
          "internalType": "uint256",
          "name": "proposalId",
          "type": "uint256"
        }
      ],
      "name": "ProposalCanceled",
      "type": "event"
    },
    {
      "anonymous": false,
      "inputs": [
        {
          "indexed": false,
          "internalType": "uint256",
          "name": "proposalId",
          "type": "uint256"
        },
        {
          "indexed": false,
          "internalType": "address",
          "name": "proposer",
          "type": "address"
        },
        {
          "indexed": false,
          "internalType": "address[]",
          "name": "targets",
          "type": "address[]"
        },
        {
          "indexed": false,
          "internalType": "uint256[]",
          "name": "values",
          "type": "uint256[]"
        },
        {
          "indexed": false,
          "internalType": "string[]",
          "name": "signatures",
          "type": "string[]"
        },
        {
          "indexed": false,
          "internalType": "bytes[]",
          "name": "calldatas",
          "type": "bytes[]"
        },
        {
          "indexed": false,
          "internalType": "uint256",
          "name": "startBlock",
          "type": "uint256"
        },
        {
          "indexed": false,
          "internalType": "uint256",
          "name": "endBlock",
          "type": "uint256"
        },
        {
          "indexed": false,
          "internalType": "string",
          "name": "description",
          "type": "string"
        }
      ],
      "name": "ProposalCreated",
      "type": "event"
    },
    {
      "anonymous": false,
      "inputs": [
        {
          "indexed": false,
          "internalType": "uint256",
          "name": "proposalId",
          "type": "uint256"
        }
      ],
      "name": "ProposalExecuted",
      "type": "event"
    },
    {
      "anonymous": false,
      "inputs": [
        {
          "indexed": true,
          "internalType": "address",
          "name": "voter",
          "type": "address"
        },
        {
          "indexed": false,
          "internalType": "uint256",
          "name": "proposalId",
          "type": "uint256"
        },
        {
          "indexed": false,
          "internalType": "uint8",
          "name": "support",
          "type": "uint8"
        },
        {
          "indexed": false,
          "internalType": "uint256",
          "name": "weight",
          "type": "uint256"
        },
        {
          "indexed": false,
          "internalType": "string",
          "name": "reason",
          "type": "string"
        }
      ],
      "name": "VoteCast",
      "type": "event"
    },
    {
      "anonymous": false,
      "inputs": [
        {
          "indexed": true,
          "internalType": "address",
          "name": "voter",
          "type": "address"
        },
        {
          "indexed": false,
          "internalType": "uint256",
          "name": "proposalId",
          "type": "uint256"
        },
        {
          "indexed": false,
          "internalType": "uint8",
          "name": "support",
          "type": "uint8"
        },
        {
          "indexed": false,
          "internalType": "uint256",
          "name": "weight",
          "type": "uint256"
        },
        {
          "indexed": false,
          "internalType": "string",
          "name": "reason",
          "type": "string"
        },
        {
          "indexed": false,
          "internalType": "bytes",
          "name": "params",
          "type": "bytes"
        }
      ],
      "name": "VoteCastWithParams",
      "type": "event"
    },
    {
      "inputs": [],
      "name": "BALLOT_TYPEHASH",
      "outputs": [
        {
          "internalType": "bytes32",
          "name": "",
          "type": "bytes32"
        }
      ],
      "stateMutability": "view",
      "type": "function"
    },
    {
      "inputs": [],
      "name": "COUNTING_MODE",
      "outputs": [
        {
          "internalType": "string",
          "name": "",
          "type": "string"
        }
      ],
      "stateMutability": "pure",
      "type": "function"
    },
    {
      "inputs": [],
      "name": "EXTENDED_BALLOT_TYPEHASH",
      "outputs": [
        {
          "internalType": "bytes32",
          "name": "",
          "type": "bytes32"
        }
      ],
      "stateMutability": "view",
      "type": "function"
    },
    {
      "inputs": [
        {
          "internalType": "uint256",
          "name": "proposalId",
          "type": "uint256"
        },
        {
          "internalType": "uint8",
          "name": "support",
          "type": "uint8"
        }
      ],
      "name": "castVote",
      "outputs": [
        {
          "internalType": "uint256",
          "name": "",
          "type": "uint256"
        }
      ],
      "stateMutability": "nonpayable",
      "type": "function"
    },
    {
      "inputs": [
        {
          "internalType": "uint256",
          "name": "proposalId",
          "type": "uint256"
        },
        {
          "internalType": "uint8",
          "name": "support",
          "type": "uint8"
        },
        {
          "internalType": "uint8",
          "name": "v",
          "type": "uint8"
        },
        {
          "internalType": "bytes32",
          "name": "r",
          "type": "bytes32"
        },
        {
          "internalType": "bytes32",
          "name": "s",
          "type": "bytes32"
        }
      ],
      "name": "castVoteBySig",
      "outputs": [
        {
          "internalType": "uint256",
          "name": "",
          "type": "uint256"
        }
      ],
      "stateMutability": "nonpayable",
      "type": "function"
    },
    {
      "inputs": [
        {
          "internalType": "uint256",
          "name": "proposalId",
          "type": "uint256"
        },
        {
          "internalType": "uint8",
          "name": "support",
          "type": "uint8"
        },
        {
          "internalType": "string",
          "name": "reason",
          "type": "string"
        }
      ],
      "name": "castVoteWithReason",
      "outputs": [
        {
          "internalType": "uint256",
          "name": "",
          "type": "uint256"
        }
      ],
      "stateMutability": "nonpayable",
      "type": "function"
    },
    {
      "inputs": [
        {
          "internalType": "uint256",
          "name": "proposalId",
          "type": "uint256"
        },
        {
          "internalType": "uint8",
          "name": "support",
          "type": "uint8"
        },
        {
          "internalType": "string",
          "name": "reason",
          "type": "string"
        },
        {
          "internalType": "bytes",
          "name": "params",
          "type": "bytes"
        }
      ],
      "name": "castVoteWithReasonAndParams",
      "outputs": [
        {
          "internalType": "uint256",
          "name": "",
          "type": "uint256"
        }
      ],
      "stateMutability": "nonpayable",
      "type": "function"
    },
    {
      "inputs": [
        {
          "internalType": "uint256",
          "name": "proposalId",
          "type": "uint256"
        },
        {
          "internalType": "uint8",
          "name": "support",
          "type": "uint8"
        },
        {
          "internalType": "string",
          "name": "reason",
          "type": "string"
        },
        {
          "internalType": "bytes",
          "name": "params",
          "type": "bytes"
        },
        {
          "internalType": "uint8",
          "name": "v",
          "type": "uint8"
        },
        {
          "internalType": "bytes32",
          "name": "r",
          "type": "bytes32"
        },
        {
          "internalType": "bytes32",
          "name": "s",
          "type": "bytes32"
        }
      ],
      "name": "castVoteWithReasonAndParamsBySig",
      "outputs": [
        {
          "internalType": "uint256",
          "name": "",
          "type": "uint256"
        }
      ],
      "stateMutability": "nonpayable",
      "type": "function"
    },
    {
      "inputs": [
        {
          "internalType": "address[]",
          "name": "targets",
          "type": "address[]"
        },
        {
          "internalType": "uint256[]",
          "name": "values",
          "type": "uint256[]"
        },
        {
          "internalType": "bytes[]",
          "name": "calldatas",
          "type": "bytes[]"
        },
        {
          "internalType": "bytes32",
          "name": "descriptionHash",
          "type": "bytes32"
        }
      ],
      "name": "execute",
      "outputs": [
        {
          "internalType": "uint256",
          "name": "",
          "type": "uint256"
        }
      ],
      "stateMutability": "payable",
      "type": "function"
    },
    {
      "inputs": [
        {
          "internalType": "address",
          "name": "account",
          "type": "address"
        },
        {
          "internalType": "uint256",
          "name": "blockNumber",
          "type": "uint256"
        }
      ],
      "name": "getVotes",
      "outputs": [
        {
          "internalType": "uint256",
          "name": "",
          "type": "uint256"
        }
      ],
      "stateMutability": "view",
      "type": "function"
    },
    {
      "inputs": [
        {
          "internalType": "address",
          "name": "account",
          "type": "address"
        },
        {
          "internalType": "uint256",
          "name": "blockNumber",
          "type": "uint256"
        },
        {
          "internalType": "bytes",
          "name": "params",
          "type": "bytes"
        }
      ],
      "name": "getVotesWithParams",
      "outputs": [
        {
          "internalType": "uint256",
          "name": "",
          "type": "uint256"
        }
      ],
      "stateMutability": "view",
      "type": "function"
    },
    {
      "inputs": [
        {
          "internalType": "uint256",
          "name": "proposalId",
          "type": "uint256"
        },
        {
          "internalType": "address",
          "name": "account",
          "type": "address"
        }
      ],
      "name": "hasVoted",
      "outputs": [
        {
          "internalType": "bool",
          "name": "",
          "type": "bool"
        }
      ],
      "stateMutability": "view",
      "type": "function"
    },
    {
      "inputs": [
        {
          "internalType": "address[]",
          "name": "targets",
          "type": "address[]"
        },
        {
          "internalType": "uint256[]",
          "name": "values",
          "type": "uint256[]"
        },
        {
          "internalType": "bytes[]",
          "name": "calldatas",
          "type": "bytes[]"
        },
        {
          "internalType": "bytes32",
          "name": "descriptionHash",
          "type": "bytes32"
        }
      ],
      "name": "hashProposal",
      "outputs": [
        {
          "internalType": "uint256",
          "name": "",
          "type": "uint256"
        }
      ],
      "stateMutability": "pure",
      "type": "function"
    },
    {
      "inputs": [],
      "name": "name",
      "outputs": [
        {
          "internalType": "string",
          "name": "",
          "type": "string"
        }
      ],
      "stateMutability": "view",
      "type": "function"
    },
    {
      "inputs": [
        {
          "internalType": "address",
          "name": "",
          "type": "address"
        },
        {
          "internalType": "address",
          "name": "",
          "type": "address"
        },
        {
          "internalType": "uint256[]",
          "name": "",
          "type": "uint256[]"
        },
        {
          "internalType": "uint256[]",
          "name": "",
          "type": "uint256[]"
        },
        {
          "internalType": "bytes",
          "name": "",
          "type": "bytes"
        }
      ],
      "name": "onERC1155BatchReceived",
      "outputs": [
        {
          "internalType": "bytes4",
          "name": "",
          "type": "bytes4"
        }
      ],
      "stateMutability": "nonpayable",
      "type": "function"
    },
    {
      "inputs": [
        {
          "internalType": "address",
          "name": "",
          "type": "address"
        },
        {
          "internalType": "address",
          "name": "",
          "type": "address"
        },
        {
          "internalType": "uint256",
          "name": "",
          "type": "uint256"
        },
        {
          "internalType": "uint256",
          "name": "",
          "type": "uint256"
        },
        {
          "internalType": "bytes",
          "name": "",
          "type": "bytes"
        }
      ],
      "name": "onERC1155Received",
      "outputs": [
        {
          "internalType": "bytes4",
          "name": "",
          "type": "bytes4"
        }
      ],
      "stateMutability": "nonpayable",
      "type": "function"
    },
    {
      "inputs": [
        {
          "internalType": "address",
          "name": "",
          "type": "address"
        },
        {
          "internalType": "address",
          "name": "",
          "type": "address"
        },
        {
          "internalType": "uint256",
          "name": "",
          "type": "uint256"
        },
        {
          "internalType": "bytes",
          "name": "",
          "type": "bytes"
        }
      ],
      "name": "onERC721Received",
      "outputs": [
        {
          "internalType": "bytes4",
          "name": "",
          "type": "bytes4"
        }
      ],
      "stateMutability": "nonpayable",
      "type": "function"
    },
    {
      "inputs": [
        {
          "internalType": "uint256",
          "name": "proposalId",
          "type": "uint256"
        }
      ],
      "name": "proposalDeadline",
      "outputs": [
        {
          "internalType": "uint256",
          "name": "",
          "type": "uint256"
        }
      ],
      "stateMutability": "view",
      "type": "function"
    },
    {
      "inputs": [
        {
          "internalType": "uint256",
          "name": "proposalId",
          "type": "uint256"
        }
      ],
      "name": "proposalSnapshot",
      "outputs": [
        {
          "internalType": "uint256",
          "name": "",
          "type": "uint256"
        }
      ],
      "stateMutability": "view",
      "type": "function"
    },
    {
      "inputs": [],
      "name": "proposalThreshold",
      "outputs": [
        {
          "internalType": "uint256",
          "name": "",
          "type": "uint256"
        }
      ],
      "stateMutability": "view",
      "type": "function"
    },
    {
      "inputs": [
        {
          "internalType": "uint256",
          "name": "proposalId",
          "type": "uint256"
        }
      ],
      "name": "proposalVotes",
      "outputs": [
        {
          "internalType": "uint256",
          "name": "againstVotes",
          "type": "uint256"
        },
        {
          "internalType": "uint256",
          "name": "forVotes",
          "type": "uint256"
        },
        {
          "internalType": "uint256",
          "name": "abstainVotes",
          "type": "uint256"
        }
      ],
      "stateMutability": "view",
      "type": "function"
    },
    {
      "inputs": [
        {
          "internalType": "address[]",
          "name": "targets",
          "type": "address[]"
        },
        {
          "internalType": "uint256[]",
          "name": "values",
          "type": "uint256[]"
        },
        {
          "internalType": "bytes[]",
          "name": "calldatas",
          "type": "bytes[]"
        },
        {
          "internalType": "string",
          "name": "description",
          "type": "string"
        }
      ],
      "name": "propose",
      "outputs": [
        {
          "internalType": "uint256",
          "name": "",
          "type": "uint256"
        }
      ],
      "stateMutability": "nonpayable",
      "type": "function"
    },
    {
      "inputs": [
        {
          "internalType": "uint256",
          "name": "blockNumber",
          "type": "uint256"
        }
      ],
      "name": "quorum",
      "outputs": [
        {
          "internalType": "uint256",
          "name": "",
          "type": "uint256"
        }
      ],
      "stateMutability": "pure",
      "type": "function"
    },
    {
      "inputs": [
        {
          "internalType": "address",
          "name": "target",
          "type": "address"
        },
        {
          "internalType": "uint256",
          "name": "value",
          "type": "uint256"
        },
        {
          "internalType": "bytes",
          "name": "data",
          "type": "bytes"
        }
      ],
      "name": "relay",
      "outputs": [],
      "stateMutability": "nonpayable",
      "type": "function"
    },
    {
      "inputs": [
        {
          "internalType": "uint256",
          "name": "proposalId",
          "type": "uint256"
        }
      ],
      "name": "state",
      "outputs": [
        {
          "internalType": "enum IGovernor.ProposalState",
          "name": "",
          "type": "uint8"
        }
      ],
      "stateMutability": "view",
      "type": "function"
    },
    {
      "inputs": [
        {
          "internalType": "bytes4",
          "name": "interfaceId",
          "type": "bytes4"
        }
      ],
      "name": "supportsInterface",
      "outputs": [
        {
          "internalType": "bool",
          "name": "",
          "type": "bool"
        }
      ],
      "stateMutability": "view",
      "type": "function"
    },
    {
      "inputs": [],
      "name": "token",
      "outputs": [
        {
          "internalType": "contract IVotes",
          "name": "",
          "type": "address"
        }
      ],
      "stateMutability": "view",
      "type": "function"
    },
    {
      "inputs": [],
      "name": "version",
      "outputs": [
        {
          "internalType": "string",
          "name": "",
          "type": "string"
        }
      ],
      "stateMutability": "view",
      "type": "function"
    },
    {
      "inputs": [],
      "name": "votingDelay",
      "outputs": [
        {
          "internalType": "uint256",
          "name": "",
          "type": "uint256"
        }
      ],
      "stateMutability": "pure",
      "type": "function"
    },
    {
      "inputs": [],
      "name": "votingPeriod",
      "outputs": [
        {
          "internalType": "uint256",
          "name": "",
          "type": "uint256"
        }
      ],
      "stateMutability": "pure",
      "type": "function"
    },
    {
      "stateMutability": "payable",
      "type": "receive"
    }
  ],
  "bytecode": "0x6101606040523480156200001257600080fd5b506040516200542f3803806200542f8339818101604052810190620000389190620002cf565b806040518060400160405280600a81526020017f4d79476f7665726e6f720000000000000000000000000000000000000000000081525080620000806200018f60201b60201c565b60008280519060200120905060008280519060200120905060007f8b73c3c69bb8fe3d512ecc4cf759cc79239f7b179b0ffacaa9a75d522b39400f90508260e081815250508161010081815250504660a08181525050620000e9818484620001cc60201b60201c565b608081815250503073ffffffffffffffffffffffffffffffffffffffff1660c08173ffffffffffffffffffffffffffffffffffffffff1660601b81525050806101208181525050505050505080600090805190602001906200014d92919062000208565b50508073ffffffffffffffffffffffffffffffffffffffff166101408173ffffffffffffffffffffffffffffffffffffffff1660601b81525050505062000466565b60606040518060400160405280600181526020017f3100000000000000000000000000000000000000000000000000000000000000815250905090565b60008383834630604051602001620001e99594939291906200032e565b6040516020818303038152906040528051906020012090509392505050565b8280546200021690620003e7565b90600052602060002090601f0160209004810192826200023a576000855562000286565b82601f106200025557805160ff191683800117855562000286565b8280016001018555821562000286579182015b828111156200028557825182559160200191906001019062000268565b5b50905062000295919062000299565b5090565b5b80821115620002b45760008160009055506001016200029a565b5090565b600081519050620002c9816200044c565b92915050565b600060208284031215620002e257600080fd5b6000620002f284828501620002b8565b91505092915050565b62000306816200038b565b82525050565b62000317816200039f565b82525050565b6200032881620003dd565b82525050565b600060a0820190506200034560008301886200030c565b6200035460208301876200030c565b6200036360408301866200030c565b6200037260608301856200031d565b620003816080830184620002fb565b9695505050505050565b60006200039882620003bd565b9050919050565b6000819050919050565b6000620003b6826200038b565b9050919050565b600073ffffffffffffffffffffffffffffffffffffffff82169050919050565b6000819050919050565b600060028204905060018216806200040057607f821691505b602082108114156200041757620004166200041d565b5b50919050565b7f4e487b7100000000000000000000000000000000000000000000000000000000600052602260045260246000fd5b6200045781620003a9565b81146200046357600080fd5b50565b60805160a05160c05160601c60e05161010051610120516101405160601c614f61620004ce600039600081816117770152611ea9015260006121380152600061217a015260006121590152600061208e015260006120e40152600061210d0152614f616000f3fe6080604052600436106101d15760003560e01c80635f398a14116100f7578063c28bc2fa11610095578063eb9019d411610064578063eb9019d41461079f578063f23a6e61146107dc578063f8ce560a14610819578063fc0c546a1461085657610217565b8063c28bc2fa146106e3578063c59057e41461070c578063dd4e2ba514610749578063deaaa7cc1461077457610217565b80639a802a6d116100d15780639a802a6d14610601578063b58131b01461063e578063bc197c8114610669578063c01f9e37146106a657610217565b80635f398a141461054a5780637b3c71d3146105875780637d5e81e2146105c457610217565b80632fe3e2611161016f578063438596321161013e5780634385963214610466578063544ffc9c146104a357806354fd4d50146104e2578063567813881461050d57610217565b80632fe3e261146103965780633932abb1146103c15780633bccf4fd146103ec5780633e4f49e61461042957610217565b806306fdde03116101ab57806306fdde03146102c1578063150b7a02146102ec5780632656227d146103295780632d63f6931461035957610217565b806301ffc9a71461021c57806302a251a314610259578063034201811461028457610217565b36610217573073ffffffffffffffffffffffffffffffffffffffff166101f5610881565b73ffffffffffffffffffffffffffffffffffffffff161461021557600080fd5b005b600080fd5b34801561022857600080fd5b50610243600480360381019061023e91906133bc565b610889565b6040516102509190613e50565b60405180910390f35b34801561026557600080fd5b5061026e6109ee565b60405161027b919061423b565b60405180910390f35b34801561029057600080fd5b506102ab60048036038101906102a691906135b3565b6109f7565b6040516102b8919061423b565b60405180910390f35b3480156102cd57600080fd5b506102d6610adc565b6040516102e39190613ff9565b60405180910390f35b3480156102f857600080fd5b50610313600480360381019061030e9190613035565b610b6e565b6040516103209190613fa8565b60405180910390f35b610343600480360381019061033e919061324e565b610b82565b604051610350919061423b565b60405180910390f35b34801561036557600080fd5b50610380600480360381019061037b91906133e5565b610d67565b60405161038d919061423b565b60405180910390f35b3480156103a257600080fd5b506103ab610dd5565b6040516103b89190613e6b565b60405180910390f35b3480156103cd57600080fd5b506103d6610df9565b6040516103e3919061423b565b60405180910390f35b3480156103f857600080fd5b50610413600480360381019061040e9190613685565b610e02565b604051610420919061423b565b60405180910390f35b34801561043557600080fd5b50610450600480360381019061044b91906133e5565b610e8c565b60405161045d9190613fde565b60405180910390f35b34801561047257600080fd5b5061048d60048036038101906104889190613437565b610fa1565b60405161049a9190613e50565b60405180910390f35b3480156104af57600080fd5b506104ca60048036038101906104c591906133e5565b61100c565b6040516104d993929190614306565b60405180910390f35b3480156104ee57600080fd5b506104f7611044565b6040516105049190613ff9565b60405180910390f35b34801561051957600080fd5b50610534600480360381019061052f9190613473565b611081565b604051610541919061423b565b60405180910390f35b34801561055657600080fd5b50610571600480360381019061056c919061351b565b6110b2565b60405161057e919061423b565b60405180910390f35b34801561059357600080fd5b506105ae60048036038101906105a991906134af565b61111c565b6040516105bb919061423b565b60405180910390f35b3480156105d057600080fd5b506105eb60048036038101906105e691906132f9565b611184565b6040516105f8919061423b565b60405180910390f35b34801561060d57600080fd5b50610628600480360381019061062391906131e7565b6114b1565b604051610635919061423b565b60405180910390f35b34801561064a57600080fd5b506106536114c7565b604051610660919061423b565b60405180910390f35b34801561067557600080fd5b50610690600480360381019061068b9190612f76565b6114cc565b60405161069d9190613fa8565b60405180910390f35b3480156106b257600080fd5b506106cd60048036038101906106c891906133e5565b6114e1565b6040516106da919061423b565b60405180910390f35b3480156106ef57600080fd5b5061070a6004803603810190610705919061317b565b61154f565b005b34801561071857600080fd5b50610733600480360381019061072e919061324e565b611695565b604051610740919061423b565b60405180910390f35b34801561075557600080fd5b5061075e6116d1565b60405161076b9190613ff9565b60405180910390f35b34801561078057600080fd5b5061078961170e565b6040516107969190613e6b565b60405180910390f35b3480156107ab57600080fd5b506107c660048036038101906107c1919061313f565b611732565b6040516107d3919061423b565b60405180910390f35b3480156107e857600080fd5b5061080360048036038101906107fe91906130b0565b61174e565b6040516108109190613fa8565b60405180910390f35b34801561082557600080fd5b50610840600480360381019061083b91906133e5565b611763565b60405161084d919061423b565b60405180910390f35b34801561086257600080fd5b5061086b611775565b6040516108789190613fc3565b60405180910390f35b600030905090565b6000639a802a6d60e01b630342018160e01b635f398a1460e01b7f79dd796f000000000000000000000000000000000000000000000000000000001818187bffffffffffffffffffffffffffffffffffffffffffffffffffffffff1916827bffffffffffffffffffffffffffffffffffffffffffffffffffffffff1916148061096f57507f79dd796f000000000000000000000000000000000000000000000000000000007bffffffffffffffffffffffffffffffffffffffffffffffffffffffff1916827bffffffffffffffffffffffffffffffffffffffffffffffffffffffff1916145b806109d757507f4e2312e0000000000000000000000000000000000000000000000000000000007bffffffffffffffffffffffffffffffffffffffffffffffffffffffff1916827bffffffffffffffffffffffffffffffffffffffffffffffffffffffff1916145b806109e757506109e682611799565b5b9050919050565b60006009905090565b600080610a7a610a727fb3b3f3b703cd84ce352197dcff232b1b5d3cfb2025ce47cf04742d0651f1af888c8c8c8c604051610a33929190613d66565b60405180910390208b80519060200120604051602001610a57959493929190613f10565b60405160208183030381529060405280519060200120611803565b86868661181d565b9050610acd8a828b8b8b8080601f016020809104026020016040519081016040528093929190818152602001838380828437600081840152601f19601f820116905080830192505050505050508a611848565b91505098975050505050505050565b606060008054610aeb9061484d565b80601f0160208091040260200160405190810160405280929190818152602001828054610b179061484d565b8015610b645780601f10610b3957610100808354040283529160200191610b64565b820191906000526020600020905b815481529060010190602001808311610b4757829003601f168201915b5050505050905090565b600063150b7a0260e01b9050949350505050565b600080610b9186868686611695565b90506000610b9e82610e8c565b905060046007811115610bda577f4e487b7100000000000000000000000000000000000000000000000000000000600052602160045260246000fd5b816007811115610c13577f4e487b7100000000000000000000000000000000000000000000000000000000600052602160045260246000fd5b1480610c8f575060056007811115610c54577f4e487b7100000000000000000000000000000000000000000000000000000000600052602160045260246000fd5b816007811115610c8d577f4e487b7100000000000000000000000000000000000000000000000000000000600052602160045260246000fd5b145b610cce576040517f08c379a0000000000000000000000000000000000000000000000000000000008152600401610cc59061417b565b60405180910390fd5b600180600084815260200190815260200160002060020160006101000a81548160ff0219169083151502179055507f712ae1383f79ac853f8d882153778e0260ef8f03b504e2866e0593e04d2b291f82604051610d2b919061423b565b60405180910390a1610d408288888888611a51565b610d4d8288888888611b81565b610d5a8288888888611d02565b8192505050949350505050565b6000610dc4600160008481526020019081526020016000206000016040518060200160405290816000820160009054906101000a900467ffffffffffffffff1667ffffffffffffffff1667ffffffffffffffff1681525050611d5d565b67ffffffffffffffff169050919050565b7fb3b3f3b703cd84ce352197dcff232b1b5d3cfb2025ce47cf04742d0651f1af8881565b60006001905090565b600080610e63610e5b7f150214d74d59b7d1e90c73fc22ef3d991dd0a76b046543d4d80ab92d2a50328f8989604051602001610e4093929190613ed9565b60405160208183030381529060405280519060200120611803565b86868661181d565b9050610e8087828860405180602001604052806000815250611d6b565b91505095945050505050565b6000806001600084815260200190815260200160002090508060020160009054906101000a900460ff1615610ec5576007915050610f9c565b8060020160019054906101000a900460ff1615610ee6576002915050610f9c565b6000610ef184610d67565b90506000811415610f37576040517f08c379a0000000000000000000000000000000000000000000000000000000008152600401610f2e9061419b565b60405180910390fd5b438110610f4957600092505050610f9c565b6000610f54856114e1565b9050438110610f695760019350505050610f9c565b610f7285611d8b565b8015610f835750610f8285611dd2565b5b15610f945760049350505050610f9c565b600393505050505b919050565b60006004600084815260200190815260200160002060030160008373ffffffffffffffffffffffffffffffffffffffff1673ffffffffffffffffffffffffffffffffffffffff16815260200190815260200160002060009054906101000a900460ff16905092915050565b600080600080600460008681526020019081526020016000209050806000015481600101548260020154935093509350509193909250565b60606040518060400160405280600181526020017f3100000000000000000000000000000000000000000000000000000000000000815250905090565b60008061108c611dfd565b90506110a984828560405180602001604052806000815250611d6b565b91505092915050565b6000806110bd611dfd565b905061111087828888888080601f016020809104026020016040519081016040528093929190818152602001838380828437600081840152601f19601f8201169050808301925050505050505087611848565b91505095945050505050565b600080611127611dfd565b905061117986828787878080601f016020809104026020016040519081016040528093929190818152602001838380828437600081840152601f19601f82011690508083019250505050505050611d6b565b915050949350505050565b600061118e6114c7565b6111ab611199611dfd565b6001436111a691906146dd565b611732565b10156111ec576040517f08c379a00000000000000000000000000000000000000000000000000000000081526004016111e39061421b565b60405180910390fd5b60006112018686868680519060200120611695565b90508451865114611247576040517f08c379a000000000000000000000000000000000000000000000000000000000815260040161123e9061407b565b60405180910390fd5b835186511461128b576040517f08c379a00000000000000000000000000000000000000000000000000000000081526004016112829061407b565b60405180910390fd5b60008651116112cf576040517f08c379a00000000000000000000000000000000000000000000000000000000081526004016112c69061411b565b60405180910390fd5b600060016000838152602001908152602001600020905061132f816000016040518060200160405290816000820160009054906101000a900467ffffffffffffffff1667ffffffffffffffff1667ffffffffffffffff1681525050611e05565b61136e576040517f08c379a0000000000000000000000000000000000000000000000000000000008152600401611365906141db565b60405180910390fd5b600061138061137b610df9565b611e1f565b61138943611e1f565b611393919061469f565b905060006113a76113a26109ee565b611e1f565b826113b2919061469f565b90506113ca8284600001611e7690919063ffffffff16565b6113e08184600101611e7690919063ffffffff16565b7f7d84a6263ae0d98d3329bd7b46bb4e8d6f98cd35a7adb45c274c8b7fd5ebd5e08461140a611dfd565b8b8b8d5167ffffffffffffffff81111561144d577f4e487b7100000000000000000000000000000000000000000000000000000000600052604160045260246000fd5b60405190808252806020026020018201604052801561148057816020015b606081526020019060019003908161146b5790505b508c88888e60405161149a99989796959493929190614256565b60405180910390a183945050505050949350505050565b60006114be848484611ea5565b90509392505050565b600090565b600063bc197c8160e01b905095945050505050565b600061153e600160008481526020019081526020016000206001016040518060200160405290816000820160009054906101000a900467ffffffffffffffff1667ffffffffffffffff1667ffffffffffffffff1681525050611d5d565b67ffffffffffffffff169050919050565b611557610881565b73ffffffffffffffffffffffffffffffffffffffff16611575611dfd565b73ffffffffffffffffffffffffffffffffffffffff16146115cb576040517f08c379a00000000000000000000000000000000000000000000000000000000081526004016115c29061403b565b60405180910390fd5b3073ffffffffffffffffffffffffffffffffffffffff166115ea610881565b73ffffffffffffffffffffffffffffffffffffffff161461163f57600061160f611f5b565b60405161161d929190613d66565b604051809103902090505b806116336002611f68565b1461163d57611628565b505b61168e8483838080601f016020809104026020016040519081016040528093929190818152602001838380828437600081840152601f19601f8201169050808301925050505050505085612044565b5050505050565b6000848484846040516020016116ae9493929190613df6565b6040516020818303038152906040528051906020012060001c9050949350505050565b60606040518060400160405280602081526020017f737570706f72743d627261766f2671756f72756d3d666f722c6162737461696e815250905090565b7f150214d74d59b7d1e90c73fc22ef3d991dd0a76b046543d4d80ab92d2a50328f81565b60006117468383611741612073565b611ea5565b905092915050565b600063f23a6e6160e01b905095945050505050565b6000671bc16d674ec800009050919050565b7f000000000000000000000000000000000000000000000000000000000000000081565b60007f01ffc9a7000000000000000000000000000000000000000000000000000000007bffffffffffffffffffffffffffffffffffffffffffffffffffffffff1916827bffffffffffffffffffffffffffffffffffffffffffffffffffffffff1916149050919050565b600061181661181061208a565b836121a4565b9050919050565b600080600061182e878787876121d7565b9150915061183b816122e4565b8192505050949350505050565b6000806001600088815260200190815260200160002090506001600781111561189a577f4e487b7100000000000000000000000000000000000000000000000000000000600052602160045260246000fd5b6118a388610e8c565b60078111156118db577f4e487b7100000000000000000000000000000000000000000000000000000000600052602160045260246000fd5b1461191b576040517f08c379a0000000000000000000000000000000000000000000000000000000008152600401611912906140fb565b60405180910390fd5b600061197a8761196a846000016040518060200160405290816000820160009054906101000a900467ffffffffffffffff1667ffffffffffffffff1667ffffffffffffffff1681525050611d5d565b67ffffffffffffffff1686611ea5565b90506119898888888488612635565b6000845114156119ec578673ffffffffffffffffffffffffffffffffffffffff167fb8e138887d0aa13bab447e82de9d5c1777041ecd21ca36ba824ff1e6c07ddda4898884896040516119df949392919061433d565b60405180910390a2611a43565b8673ffffffffffffffffffffffffffffffffffffffff167fe2babfbac5889a709b63bb7f598b324e08bc5a4fb9ec647fb3cbc9ec07eb87128988848989604051611a3a959493929190614389565b60405180910390a25b809250505095945050505050565b3073ffffffffffffffffffffffffffffffffffffffff16611a70610881565b73ffffffffffffffffffffffffffffffffffffffff1614611b7a5760005b8451811015611b78573073ffffffffffffffffffffffffffffffffffffffff16858281518110611ae7577f4e487b7100000000000000000000000000000000000000000000000000000000600052603260045260246000fd5b602002602001015173ffffffffffffffffffffffffffffffffffffffff161415611b6757611b66838281518110611b47577f4e487b7100000000000000000000000000000000000000000000000000000000600052603260045260246000fd5b60200260200101518051906020012060026128ae90919063ffffffff16565b5b80611b71906148b0565b9050611a8e565b505b5050505050565b6000604051806060016040528060278152602001614edc60279139905060005b8551811015611cf957600080878381518110611be6577f4e487b7100000000000000000000000000000000000000000000000000000000600052603260045260246000fd5b602002602001015173ffffffffffffffffffffffffffffffffffffffff16878481518110611c3d577f4e487b7100000000000000000000000000000000000000000000000000000000600052603260045260246000fd5b6020026020010151878581518110611c7e577f4e487b7100000000000000000000000000000000000000000000000000000000600052603260045260246000fd5b6020026020010151604051611c939190613d7f565b60006040518083038185875af1925050503d8060008114611cd0576040519150601f19603f3d011682016040523d82523d6000602084013e611cd5565b606091505b5091509150611ce582828661292a565b50505080611cf2906148b0565b9050611ba1565b50505050505050565b3073ffffffffffffffffffffffffffffffffffffffff16611d21610881565b73ffffffffffffffffffffffffffffffffffffffff1614611d5657611d466002612991565b611d5557611d5460026129c6565b5b5b5050505050565b600081600001519050919050565b6000611d8185858585611d7c612073565b611848565b9050949350505050565b60008060046000848152602001908152602001600020905080600201548160010154611db79190614649565b611dc8611dc385610d67565b611763565b1115915050919050565b6000806004600084815260200190815260200160002090508060000154816001015411915050919050565b600033905090565b600080826000015167ffffffffffffffff16149050919050565b600067ffffffffffffffff8016821115611e6e576040517f08c379a0000000000000000000000000000000000000000000000000000000008152600401611e659061415b565b60405180910390fd5b819050919050565b808260000160006101000a81548167ffffffffffffffff021916908367ffffffffffffffff1602179055505050565b60007f000000000000000000000000000000000000000000000000000000000000000073ffffffffffffffffffffffffffffffffffffffff16633a46b1a885856040518363ffffffff1660e01b8152600401611f02929190613dcd565b60206040518083038186803b158015611f1a57600080fd5b505afa158015611f2e573d6000803e3d6000fd5b505050506040513d601f19601f82011682018060405250810190611f52919061340e565b90509392505050565b3660008036915091509091565b6000611f7382612991565b15611faa576040517f3db2a12a00000000000000000000000000000000000000000000000000000000815260040160405180910390fd5b60008260000160009054906101000a9004600f0b905082600101600082600f0b600f0b815260200190815260200160002054915082600101600082600f0b600f0b815260200190815260200160002060009055600181018360000160006101000a8154816fffffffffffffffffffffffffffffffff0219169083600f0b6fffffffffffffffffffffffffffffffff16021790555050919050565b606061206a848484604051806060016040528060298152602001614f0360299139612a47565b90509392505050565b606060405180602001604052806000815250905090565b60007f000000000000000000000000000000000000000000000000000000000000000073ffffffffffffffffffffffffffffffffffffffff163073ffffffffffffffffffffffffffffffffffffffff1614801561210657507f000000000000000000000000000000000000000000000000000000000000000046145b15612133577f000000000000000000000000000000000000000000000000000000000000000090506121a1565b61219e7f00000000000000000000000000000000000000000000000000000000000000007f00000000000000000000000000000000000000000000000000000000000000007f0000000000000000000000000000000000000000000000000000000000000000612b5b565b90505b90565b600082826040516020016121b9929190613d96565b60405160208183030381529060405280519060200120905092915050565b6000807f7fffffffffffffffffffffffffffffff5d576e7357a4501ddfe92f46681b20a08360001c11156122125760006003915091506122db565b601b8560ff161415801561222a5750601c8560ff1614155b1561223c5760006004915091506122db565b6000600187878787604051600081526020016040526040516122619493929190613f63565b6020604051602081039080840390855afa158015612283573d6000803e3d6000fd5b505050602060405103519050600073ffffffffffffffffffffffffffffffffffffffff168173ffffffffffffffffffffffffffffffffffffffff1614156122d2576000600192509250506122db565b80600092509250505b94509492505050565b6000600481111561231e577f4e487b7100000000000000000000000000000000000000000000000000000000600052602160045260246000fd5b816004811115612357577f4e487b7100000000000000000000000000000000000000000000000000000000600052602160045260246000fd5b141561236257612632565b6001600481111561239c577f4e487b7100000000000000000000000000000000000000000000000000000000600052602160045260246000fd5b8160048111156123d5577f4e487b7100000000000000000000000000000000000000000000000000000000600052602160045260246000fd5b1415612416576040517f08c379a000000000000000000000000000000000000000000000000000000000815260040161240d9061401b565b60405180910390fd5b60026004811115612450577f4e487b7100000000000000000000000000000000000000000000000000000000600052602160045260246000fd5b816004811115612489577f4e487b7100000000000000000000000000000000000000000000000000000000600052602160045260246000fd5b14156124ca576040517f08c379a00000000000000000000000000000000000000000000000000000000081526004016124c19061405b565b60405180910390fd5b60036004811115612504577f4e487b7100000000000000000000000000000000000000000000000000000000600052602160045260246000fd5b81600481111561253d577f4e487b7100000000000000000000000000000000000000000000000000000000600052602160045260246000fd5b141561257e576040517f08c379a00000000000000000000000000000000000000000000000000000000081526004016125759061409b565b60405180910390fd5b6004808111156125b7577f4e487b7100000000000000000000000000000000000000000000000000000000600052602160045260246000fd5b8160048111156125f0577f4e487b7100000000000000000000000000000000000000000000000000000000600052602160045260246000fd5b1415612631576040517f08c379a00000000000000000000000000000000000000000000000000000000081526004016126289061413b565b60405180910390fd5b5b50565b60006004600087815260200190815260200160002090508060030160008673ffffffffffffffffffffffffffffffffffffffff1673ffffffffffffffffffffffffffffffffffffffff16815260200190815260200160002060009054906101000a900460ff16156126db576040517f08c379a00000000000000000000000000000000000000000000000000000000081526004016126d2906140bb565b60405180910390fd5b60018160030160008773ffffffffffffffffffffffffffffffffffffffff1673ffffffffffffffffffffffffffffffffffffffff16815260200190815260200160002060006101000a81548160ff0219169083151502179055506000600281111561276f577f4e487b7100000000000000000000000000000000000000000000000000000000600052602160045260246000fd5b60ff168460ff16141561279c57828160000160008282546127909190614649565b925050819055506128a6565b600160028111156127d6577f4e487b7100000000000000000000000000000000000000000000000000000000600052602160045260246000fd5b60ff168460ff16141561280357828160010160008282546127f79190614649565b925050819055506128a5565b60028081111561283c577f4e487b7100000000000000000000000000000000000000000000000000000000600052602160045260246000fd5b60ff168460ff161415612869578281600201600082825461285d9190614649565b925050819055506128a4565b6040517f08c379a000000000000000000000000000000000000000000000000000000000815260040161289b906141bb565b60405180910390fd5b5b5b505050505050565b60008260000160109054906101000a9004600f0b90508183600101600083600f0b600f0b815260200190815260200160002081905550600181018360000160106101000a8154816fffffffffffffffffffffffffffffffff0219169083600f0b6fffffffffffffffffffffffffffffffff160217905550505050565b6060831561293a5782905061298a565b60008351111561294d5782518084602001fd5b816040517f08c379a00000000000000000000000000000000000000000000000000000000081526004016129819190613ff9565b60405180910390fd5b9392505050565b60008160000160009054906101000a9004600f0b600f0b8260000160109054906101000a9004600f0b600f0b13159050919050565b60008160000160006101000a8154816fffffffffffffffffffffffffffffffff0219169083600f0b6fffffffffffffffffffffffffffffffff16021790555060008160000160106101000a8154816fffffffffffffffffffffffffffffffff0219169083600f0b6fffffffffffffffffffffffffffffffff16021790555050565b606082471015612a8c576040517f08c379a0000000000000000000000000000000000000000000000000000000008152600401612a83906140db565b60405180910390fd5b612a9585612b95565b612ad4576040517f08c379a0000000000000000000000000000000000000000000000000000000008152600401612acb906141fb565b60405180910390fd5b6000808673ffffffffffffffffffffffffffffffffffffffff168587604051612afd9190613d7f565b60006040518083038185875af1925050503d8060008114612b3a576040519150601f19603f3d011682016040523d82523d6000602084013e612b3f565b606091505b5091509150612b4f82828661292a565b92505050949350505050565b60008383834630604051602001612b76959493929190613e86565b6040516020818303038152906040528051906020012090509392505050565b6000808273ffffffffffffffffffffffffffffffffffffffff163b119050919050565b6000612bcb612bc68461440f565b6143ea565b90508083825260208201905082856020860282011115612bea57600080fd5b60005b85811015612c1a5781612c008882612d92565b845260208401935060208301925050600181019050612bed565b5050509392505050565b6000612c37612c328461443b565b6143ea565b90508083825260208201905082856020860282011115612c5657600080fd5b60005b85811015612ca057813567ffffffffffffffff811115612c7857600080fd5b808601612c858982612e99565b85526020850194506020840193505050600181019050612c59565b5050509392505050565b6000612cbd612cb884614467565b6143ea565b90508083825260208201905082856020860282011115612cdc57600080fd5b60005b85811015612d0c5781612cf28882612f37565b845260208401935060208301925050600181019050612cdf565b5050509392505050565b6000612d29612d2484614493565b6143ea565b905082815260208101848484011115612d4157600080fd5b612d4c84828561480b565b509392505050565b6000612d67612d62846144c4565b6143ea565b905082815260208101848484011115612d7f57600080fd5b612d8a84828561480b565b509392505050565b600081359050612da181614e68565b92915050565b600082601f830112612db857600080fd5b8135612dc8848260208601612bb8565b91505092915050565b600082601f830112612de257600080fd5b8135612df2848260208601612c24565b91505092915050565b600082601f830112612e0c57600080fd5b8135612e1c848260208601612caa565b91505092915050565b600081359050612e3481614e7f565b92915050565b600081359050612e4981614e96565b92915050565b60008083601f840112612e6157600080fd5b8235905067ffffffffffffffff811115612e7a57600080fd5b602083019150836001820283011115612e9257600080fd5b9250929050565b600082601f830112612eaa57600080fd5b8135612eba848260208601612d16565b91505092915050565b60008083601f840112612ed557600080fd5b8235905067ffffffffffffffff811115612eee57600080fd5b602083019150836001820283011115612f0657600080fd5b9250929050565b600082601f830112612f1e57600080fd5b8135612f2e848260208601612d54565b91505092915050565b600081359050612f4681614ead565b92915050565b600081519050612f5b81614ead565b92915050565b600081359050612f7081614ec4565b92915050565b600080600080600060a08688031215612f8e57600080fd5b6000612f9c88828901612d92565b9550506020612fad88828901612d92565b945050604086013567ffffffffffffffff811115612fca57600080fd5b612fd688828901612dfb565b935050606086013567ffffffffffffffff811115612ff357600080fd5b612fff88828901612dfb565b925050608086013567ffffffffffffffff81111561301c57600080fd5b61302888828901612e99565b9150509295509295909350565b6000806000806080858703121561304b57600080fd5b600061305987828801612d92565b945050602061306a87828801612d92565b935050604061307b87828801612f37565b925050606085013567ffffffffffffffff81111561309857600080fd5b6130a487828801612e99565b91505092959194509250565b600080600080600060a086880312156130c857600080fd5b60006130d688828901612d92565b95505060206130e788828901612d92565b94505060406130f888828901612f37565b935050606061310988828901612f37565b925050608086013567ffffffffffffffff81111561312657600080fd5b61313288828901612e99565b9150509295509295909350565b6000806040838503121561315257600080fd5b600061316085828601612d92565b925050602061317185828601612f37565b9150509250929050565b6000806000806060858703121561319157600080fd5b600061319f87828801612d92565b94505060206131b087828801612f37565b935050604085013567ffffffffffffffff8111156131cd57600080fd5b6131d987828801612e4f565b925092505092959194509250565b6000806000606084860312156131fc57600080fd5b600061320a86828701612d92565b935050602061321b86828701612f37565b925050604084013567ffffffffffffffff81111561323857600080fd5b61324486828701612e99565b9150509250925092565b6000806000806080858703121561326457600080fd5b600085013567ffffffffffffffff81111561327e57600080fd5b61328a87828801612da7565b945050602085013567ffffffffffffffff8111156132a757600080fd5b6132b387828801612dfb565b935050604085013567ffffffffffffffff8111156132d057600080fd5b6132dc87828801612dd1565b92505060606132ed87828801612e25565b91505092959194509250565b6000806000806080858703121561330f57600080fd5b600085013567ffffffffffffffff81111561332957600080fd5b61333587828801612da7565b945050602085013567ffffffffffffffff81111561335257600080fd5b61335e87828801612dfb565b935050604085013567ffffffffffffffff81111561337b57600080fd5b61338787828801612dd1565b925050606085013567ffffffffffffffff8111156133a457600080fd5b6133b087828801612f0d565b91505092959194509250565b6000602082840312156133ce57600080fd5b60006133dc84828501612e3a565b91505092915050565b6000602082840312156133f757600080fd5b600061340584828501612f37565b91505092915050565b60006020828403121561342057600080fd5b600061342e84828501612f4c565b91505092915050565b6000806040838503121561344a57600080fd5b600061345885828601612f37565b925050602061346985828601612d92565b9150509250929050565b6000806040838503121561348657600080fd5b600061349485828601612f37565b92505060206134a585828601612f61565b9150509250929050565b600080600080606085870312156134c557600080fd5b60006134d387828801612f37565b94505060206134e487828801612f61565b935050604085013567ffffffffffffffff81111561350157600080fd5b61350d87828801612ec3565b925092505092959194509250565b60008060008060006080868803121561353357600080fd5b600061354188828901612f37565b955050602061355288828901612f61565b945050604086013567ffffffffffffffff81111561356f57600080fd5b61357b88828901612ec3565b9350935050606086013567ffffffffffffffff81111561359a57600080fd5b6135a688828901612e99565b9150509295509295909350565b60008060008060008060008060e0898b0312156135cf57600080fd5b60006135dd8b828c01612f37565b98505060206135ee8b828c01612f61565b975050604089013567ffffffffffffffff81111561360b57600080fd5b6136178b828c01612ec3565b9650965050606089013567ffffffffffffffff81111561363657600080fd5b6136428b828c01612e99565b94505060806136538b828c01612f61565b93505060a06136648b828c01612e25565b92505060c06136758b828c01612e25565b9150509295985092959890939650565b600080600080600060a0868803121561369d57600080fd5b60006136ab88828901612f37565b95505060206136bc88828901612f61565b94505060406136cd88828901612f61565b93505060606136de88828901612e25565b92505060806136ef88828901612e25565b9150509295509295909350565b60006137088383613754565b60208301905092915050565b60006137208383613981565b905092915050565b60006137348383613a42565b905092915050565b60006137488383613d2a565b60208301905092915050565b61375d81614711565b82525050565b61376c81614711565b82525050565b600061377d82614535565b61378781856145ab565b9350613792836144f5565b8060005b838110156137c35781516137aa88826136fc565b97506137b583614577565b925050600181019050613796565b5085935050505092915050565b60006137db82614540565b6137e581856145bc565b9350836020820285016137f785614505565b8060005b8581101561383357848403895281516138148582613714565b945061381f83614584565b925060208a019950506001810190506137fb565b50829750879550505050505092915050565b60006138508261454b565b61385a81856145cd565b93508360208202850161386c85614515565b8060005b858110156138a857848403895281516138898582613728565b945061389483614591565b925060208a01995050600181019050613870565b50829750879550505050505092915050565b60006138c582614556565b6138cf81856145de565b93506138da83614525565b8060005b8381101561390b5781516138f2888261373c565b97506138fd8361459e565b9250506001810190506138de565b5085935050505092915050565b61392181614723565b82525050565b6139308161472f565b82525050565b6139476139428261472f565b6148f9565b82525050565b61395681614739565b82525050565b60006139688385614611565b935061397583858461480b565b82840190509392505050565b600061398c82614561565b61399681856145ef565b93506139a681856020860161481a565b6139af816149bf565b840191505092915050565b60006139c582614561565b6139cf8185614600565b93506139df81856020860161481a565b6139e8816149bf565b840191505092915050565b60006139fe82614561565b613a088185614611565b9350613a1881856020860161481a565b80840191505092915050565b613a2d816147c3565b82525050565b613a3c816147e7565b82525050565b6000613a4d8261456c565b613a57818561461c565b9350613a6781856020860161481a565b613a70816149bf565b840191505092915050565b6000613a868261456c565b613a90818561462d565b9350613aa081856020860161481a565b613aa9816149bf565b840191505092915050565b6000613ac160188361462d565b9150613acc826149d0565b602082019050919050565b6000613ae460188361462d565b9150613aef826149f9565b602082019050919050565b6000613b07601f8361462d565b9150613b1282614a22565b602082019050919050565b6000613b2a60028361463e565b9150613b3582614a4b565b600282019050919050565b6000613b4d60218361462d565b9150613b5882614a74565b604082019050919050565b6000613b7060228361462d565b9150613b7b82614ac3565b604082019050919050565b6000613b9360278361462d565b9150613b9e82614b12565b604082019050919050565b6000613bb660268361462d565b9150613bc182614b61565b604082019050919050565b6000613bd960238361462d565b9150613be482614bb0565b604082019050919050565b6000613bfc60188361462d565b9150613c0782614bff565b602082019050919050565b6000613c1f60228361462d565b9150613c2a82614c28565b604082019050919050565b6000613c4260268361462d565b9150613c4d82614c77565b604082019050919050565b6000613c6560218361462d565b9150613c7082614cc6565b604082019050919050565b6000613c88601d8361462d565b9150613c9382614d15565b602082019050919050565b6000613cab60358361462d565b9150613cb682614d3e565b604082019050919050565b6000613cce60218361462d565b9150613cd982614d8d565b604082019050919050565b6000613cf1601d8361462d565b9150613cfc82614ddc565b602082019050919050565b6000613d1460318361462d565b9150613d1f82614e05565b604082019050919050565b613d3381614798565b82525050565b613d4281614798565b82525050565b613d51816147f9565b82525050565b613d60816147b6565b82525050565b6000613d7382848661395c565b91508190509392505050565b6000613d8b82846139f3565b915081905092915050565b6000613da182613b1d565b9150613dad8285613936565b602082019150613dbd8284613936565b6020820191508190509392505050565b6000604082019050613de26000830185613763565b613def6020830184613d39565b9392505050565b60006080820190508181036000830152613e108187613772565b90508181036020830152613e2481866138ba565b90508181036040830152613e3881856137d0565b9050613e476060830184613927565b95945050505050565b6000602082019050613e656000830184613918565b92915050565b6000602082019050613e806000830184613927565b92915050565b600060a082019050613e9b6000830188613927565b613ea86020830187613927565b613eb56040830186613927565b613ec26060830185613d39565b613ecf6080830184613763565b9695505050505050565b6000606082019050613eee6000830186613927565b613efb6020830185613d39565b613f086040830184613d57565b949350505050565b600060a082019050613f256000830188613927565b613f326020830187613d39565b613f3f6040830186613d57565b613f4c6060830185613927565b613f596080830184613927565b9695505050505050565b6000608082019050613f786000830187613927565b613f856020830186613d57565b613f926040830185613927565b613f9f6060830184613927565b95945050505050565b6000602082019050613fbd600083018461394d565b92915050565b6000602082019050613fd86000830184613a24565b92915050565b6000602082019050613ff36000830184613a33565b92915050565b600060208201905081810360008301526140138184613a7b565b905092915050565b6000602082019050818103600083015261403481613ab4565b9050919050565b6000602082019050818103600083015261405481613ad7565b9050919050565b6000602082019050818103600083015261407481613afa565b9050919050565b6000602082019050818103600083015261409481613b40565b9050919050565b600060208201905081810360008301526140b481613b63565b9050919050565b600060208201905081810360008301526140d481613b86565b9050919050565b600060208201905081810360008301526140f481613ba9565b9050919050565b6000602082019050818103600083015261411481613bcc565b9050919050565b6000602082019050818103600083015261413481613bef565b9050919050565b6000602082019050818103600083015261415481613c12565b9050919050565b6000602082019050818103600083015261417481613c35565b9050919050565b6000602082019050818103600083015261419481613c58565b9050919050565b600060208201905081810360008301526141b481613c7b565b9050919050565b600060208201905081810360008301526141d481613c9e565b9050919050565b600060208201905081810360008301526141f481613cc1565b9050919050565b6000602082019050818103600083015261421481613ce4565b9050919050565b6000602082019050818103600083015261423481613d07565b9050919050565b60006020820190506142506000830184613d39565b92915050565b60006101208201905061426c600083018c613d39565b614279602083018b613763565b818103604083015261428b818a613772565b9050818103606083015261429f81896138ba565b905081810360808301526142b38188613845565b905081810360a08301526142c781876137d0565b90506142d660c0830186613d48565b6142e360e0830185613d48565b8181036101008301526142f68184613a7b565b90509a9950505050505050505050565b600060608201905061431b6000830186613d39565b6143286020830185613d39565b6143356040830184613d39565b949350505050565b60006080820190506143526000830187613d39565b61435f6020830186613d57565b61436c6040830185613d39565b818103606083015261437e8184613a7b565b905095945050505050565b600060a08201905061439e6000830188613d39565b6143ab6020830187613d57565b6143b86040830186613d39565b81810360608301526143ca8185613a7b565b905081810360808301526143de81846139ba565b90509695505050505050565b60006143f4614405565b9050614400828261487f565b919050565b6000604051905090565b600067ffffffffffffffff82111561442a57614429614990565b5b602082029050602081019050919050565b600067ffffffffffffffff82111561445657614455614990565b5b602082029050602081019050919050565b600067ffffffffffffffff82111561448257614481614990565b5b602082029050602081019050919050565b600067ffffffffffffffff8211156144ae576144ad614990565b5b6144b7826149bf565b9050602081019050919050565b600067ffffffffffffffff8211156144df576144de614990565b5b6144e8826149bf565b9050602081019050919050565b6000819050602082019050919050565b6000819050602082019050919050565b6000819050602082019050919050565b6000819050602082019050919050565b600081519050919050565b600081519050919050565b600081519050919050565b600081519050919050565b600081519050919050565b600081519050919050565b6000602082019050919050565b6000602082019050919050565b6000602082019050919050565b6000602082019050919050565b600082825260208201905092915050565b600082825260208201905092915050565b600082825260208201905092915050565b600082825260208201905092915050565b600082825260208201905092915050565b600082825260208201905092915050565b600081905092915050565b600082825260208201905092915050565b600082825260208201905092915050565b600081905092915050565b600061465482614798565b915061465f83614798565b9250827fffffffffffffffffffffffffffffffffffffffffffffffffffffffffffffffff0382111561469457614693614903565b5b828201905092915050565b60006146aa826147a2565b91506146b5836147a2565b92508267ffffffffffffffff038211156146d2576146d1614903565b5b828201905092915050565b60006146e882614798565b91506146f383614798565b92508282101561470657614705614903565b5b828203905092915050565b600061471c82614778565b9050919050565b60008115159050919050565b6000819050919050565b60007fffffffff0000000000000000000000000000000000000000000000000000000082169050919050565b600081905061477382614e54565b919050565b600073ffffffffffffffffffffffffffffffffffffffff82169050919050565b6000819050919050565b600067ffffffffffffffff82169050919050565b600060ff82169050919050565b60006147ce826147d5565b9050919050565b60006147e082614778565b9050919050565b60006147f282614765565b9050919050565b6000614804826147a2565b9050919050565b82818337600083830152505050565b60005b8381101561483857808201518184015260208101905061481d565b83811115614847576000848401525b50505050565b6000600282049050600182168061486557607f821691505b6020821081141561487957614878614961565b5b50919050565b614888826149bf565b810181811067ffffffffffffffff821117156148a7576148a6614990565b5b80604052505050565b60006148bb82614798565b91507fffffffffffffffffffffffffffffffffffffffffffffffffffffffffffffffff8214156148ee576148ed614903565b5b600182019050919050565b6000819050919050565b7f4e487b7100000000000000000000000000000000000000000000000000000000600052601160045260246000fd5b7f4e487b7100000000000000000000000000000000000000000000000000000000600052602160045260246000fd5b7f4e487b7100000000000000000000000000000000000000000000000000000000600052602260045260246000fd5b7f4e487b7100000000000000000000000000000000000000000000000000000000600052604160045260246000fd5b6000601f19601f8301169050919050565b7f45434453413a20696e76616c6964207369676e61747572650000000000000000600082015250565b7f476f7665726e6f723a206f6e6c79476f7665726e616e63650000000000000000600082015250565b7f45434453413a20696e76616c6964207369676e6174757265206c656e67746800600082015250565b7f1901000000000000000000000000000000000000000000000000000000000000600082015250565b7f476f7665726e6f723a20696e76616c69642070726f706f73616c206c656e677460008201527f6800000000000000000000000000000000000000000000000000000000000000602082015250565b7f45434453413a20696e76616c6964207369676e6174757265202773272076616c60008201527f7565000000000000000000000000000000000000000000000000000000000000602082015250565b7f476f7665726e6f72566f74696e6753696d706c653a20766f746520616c72656160008201527f6479206361737400000000000000000000000000000000000000000000000000602082015250565b7f416464726573733a20696e73756666696369656e742062616c616e636520666f60008201527f722063616c6c0000000000000000000000000000000000000000000000000000602082015250565b7f476f7665726e6f723a20766f7465206e6f742063757272656e746c792061637460008201527f6976650000000000000000000000000000000000000000000000000000000000602082015250565b7f476f7665726e6f723a20656d7074792070726f706f73616c0000000000000000600082015250565b7f45434453413a20696e76616c6964207369676e6174757265202776272076616c60008201527f7565000000000000000000000000000000000000000000000000000000000000602082015250565b7f53616665436173743a2076616c756520646f65736e27742066697420696e203660008201527f3420626974730000000000000000000000000000000000000000000000000000602082015250565b7f476f7665726e6f723a2070726f706f73616c206e6f742073756363657373667560008201527f6c00000000000000000000000000000000000000000000000000000000000000602082015250565b7f476f7665726e6f723a20756e6b6e6f776e2070726f706f73616c206964000000600082015250565b7f476f7665726e6f72566f74696e6753696d706c653a20696e76616c696420766160008201527f6c756520666f7220656e756d20566f7465547970650000000000000000000000602082015250565b7f476f7665726e6f723a2070726f706f73616c20616c726561647920657869737460008201527f7300000000000000000000000000000000000000000000000000000000000000602082015250565b7f416464726573733a2063616c6c20746f206e6f6e2d636f6e7472616374000000600082015250565b7f476f7665726e6f723a2070726f706f73657220766f7465732062656c6f77207060008201527f726f706f73616c207468726573686f6c64000000000000000000000000000000602082015250565b60088110614e6557614e64614932565b5b50565b614e7181614711565b8114614e7c57600080fd5b50565b614e888161472f565b8114614e9357600080fd5b50565b614e9f81614739565b8114614eaa57600080fd5b50565b614eb681614798565b8114614ec157600080fd5b50565b614ecd816147b6565b8114614ed857600080fd5b5056fe476f7665726e6f723a2063616c6c20726576657274656420776974686f7574206d657373616765416464726573733a206c6f772d6c6576656c2063616c6c20776974682076616c7565206661696c6564a2646970667358221220b6a1c3062b023876d4c156b774d51dc4f3552e815ccfcabf5d120b286eff759264736f6c63430008040033",
  "linkReferences": {},
  "deployedLinkReferences": {}
}